{
  "_format": "hh-sol-artifact-1",
  "contractName": "GoToken",
  "sourceName": "contracts/GoToken.sol",
  "abi": [
    {
      "inputs": [
        {
          "internalType": "uint256",
          "name": "initialSupply",
          "type": "uint256"
        }
      ],
      "stateMutability": "nonpayable",
      "type": "constructor"
    },
    {
      "inputs": [
        {
          "internalType": "address",
          "name": "spender",
          "type": "address"
        },
        {
          "internalType": "uint256",
          "name": "allowance",
          "type": "uint256"
        },
        {
          "internalType": "uint256",
          "name": "needed",
          "type": "uint256"
        }
      ],
      "name": "ERC20InsufficientAllowance",
      "type": "error"
    },
    {
      "inputs": [
        {
          "internalType": "address",
          "name": "sender",
          "type": "address"
        },
        {
          "internalType": "uint256",
          "name": "balance",
          "type": "uint256"
        },
        {
          "internalType": "uint256",
          "name": "needed",
          "type": "uint256"
        }
      ],
      "name": "ERC20InsufficientBalance",
      "type": "error"
    },
    {
      "inputs": [
        {
          "internalType": "address",
          "name": "approver",
          "type": "address"
        }
      ],
      "name": "ERC20InvalidApprover",
      "type": "error"
    },
    {
      "inputs": [
        {
          "internalType": "address",
          "name": "receiver",
          "type": "address"
        }
      ],
      "name": "ERC20InvalidReceiver",
      "type": "error"
    },
    {
      "inputs": [
        {
          "internalType": "address",
          "name": "sender",
          "type": "address"
        }
      ],
      "name": "ERC20InvalidSender",
      "type": "error"
    },
    {
      "inputs": [
        {
          "internalType": "address",
          "name": "spender",
          "type": "address"
        }
      ],
      "name": "ERC20InvalidSpender",
      "type": "error"
    },
    {
      "inputs": [
        {
          "internalType": "address",
          "name": "owner",
          "type": "address"
        }
      ],
      "name": "OwnableInvalidOwner",
      "type": "error"
    },
    {
      "inputs": [
        {
          "internalType": "address",
          "name": "account",
          "type": "address"
        }
      ],
      "name": "OwnableUnauthorizedAccount",
      "type": "error"
    },
    {
      "anonymous": false,
      "inputs": [
        {
          "indexed": true,
          "internalType": "address",
          "name": "owner",
          "type": "address"
        },
        {
          "indexed": true,
          "internalType": "address",
          "name": "spender",
          "type": "address"
        },
        {
          "indexed": false,
          "internalType": "uint256",
          "name": "value",
          "type": "uint256"
        }
      ],
      "name": "Approval",
      "type": "event"
    },
    {
      "anonymous": false,
      "inputs": [
        {
          "indexed": true,
          "internalType": "address",
          "name": "user",
          "type": "address"
        },
        {
          "indexed": false,
          "internalType": "uint256",
          "name": "amount",
          "type": "uint256"
        }
      ],
      "name": "FaucetClaim",
      "type": "event"
    },
    {
      "anonymous": false,
      "inputs": [
        {
          "indexed": false,
          "internalType": "bool",
          "name": "enabled",
          "type": "bool"
        }
      ],
      "name": "FaucetToggled",
      "type": "event"
    },
    {
      "anonymous": false,
      "inputs": [
        {
          "indexed": true,
          "internalType": "address",
          "name": "previousOwner",
          "type": "address"
        },
        {
          "indexed": true,
          "internalType": "address",
          "name": "newOwner",
          "type": "address"
        }
      ],
      "name": "OwnershipTransferStarted",
      "type": "event"
    },
    {
      "anonymous": false,
      "inputs": [
        {
          "indexed": true,
          "internalType": "address",
          "name": "previousOwner",
          "type": "address"
        },
        {
          "indexed": true,
          "internalType": "address",
          "name": "newOwner",
          "type": "address"
        }
      ],
      "name": "OwnershipTransferred",
      "type": "event"
    },
    {
      "anonymous": false,
      "inputs": [
        {
          "indexed": true,
          "internalType": "address",
          "name": "from",
          "type": "address"
        },
        {
          "indexed": true,
          "internalType": "address",
          "name": "to",
          "type": "address"
        },
        {
          "indexed": false,
          "internalType": "uint256",
          "name": "value",
          "type": "uint256"
        }
      ],
      "name": "Transfer",
      "type": "event"
    },
    {
      "inputs": [],
      "name": "FAUCET_AMOUNT",
      "outputs": [
        {
          "internalType": "uint256",
          "name": "",
          "type": "uint256"
        }
      ],
      "stateMutability": "view",
      "type": "function"
    },
    {
      "inputs": [],
      "name": "FAUCET_COOLDOWN",
      "outputs": [
        {
          "internalType": "uint256",
          "name": "",
          "type": "uint256"
        }
      ],
      "stateMutability": "view",
      "type": "function"
    },
    {
      "inputs": [],
      "name": "MAX_SUPPLY",
      "outputs": [
        {
          "internalType": "uint256",
          "name": "",
          "type": "uint256"
        }
      ],
      "stateMutability": "view",
      "type": "function"
    },
    {
      "inputs": [],
      "name": "acceptOwnership",
      "outputs": [],
      "stateMutability": "nonpayable",
      "type": "function"
    },
    {
      "inputs": [
        {
          "internalType": "address",
          "name": "owner",
          "type": "address"
        },
        {
          "internalType": "address",
          "name": "spender",
          "type": "address"
        }
      ],
      "name": "allowance",
      "outputs": [
        {
          "internalType": "uint256",
          "name": "",
          "type": "uint256"
        }
      ],
      "stateMutability": "view",
      "type": "function"
    },
    {
      "inputs": [
        {
          "internalType": "address",
          "name": "spender",
          "type": "address"
        },
        {
          "internalType": "uint256",
          "name": "value",
          "type": "uint256"
        }
      ],
      "name": "approve",
      "outputs": [
        {
          "internalType": "bool",
          "name": "",
          "type": "bool"
        }
      ],
      "stateMutability": "nonpayable",
      "type": "function"
    },
    {
      "inputs": [
        {
          "internalType": "address",
          "name": "account",
          "type": "address"
        }
      ],
      "name": "balanceOf",
      "outputs": [
        {
          "internalType": "uint256",
          "name": "",
          "type": "uint256"
        }
      ],
      "stateMutability": "view",
      "type": "function"
    },
    {
      "inputs": [
        {
          "internalType": "uint256",
          "name": "value",
          "type": "uint256"
        }
      ],
      "name": "burn",
      "outputs": [],
      "stateMutability": "nonpayable",
      "type": "function"
    },
    {
      "inputs": [
        {
          "internalType": "address",
          "name": "account",
          "type": "address"
        },
        {
          "internalType": "uint256",
          "name": "value",
          "type": "uint256"
        }
      ],
      "name": "burnFrom",
      "outputs": [],
      "stateMutability": "nonpayable",
      "type": "function"
    },
    {
      "inputs": [],
      "name": "decimals",
      "outputs": [
        {
          "internalType": "uint8",
          "name": "",
          "type": "uint8"
        }
      ],
      "stateMutability": "view",
      "type": "function"
    },
    {
      "inputs": [],
      "name": "faucet",
      "outputs": [],
      "stateMutability": "nonpayable",
      "type": "function"
    },
    {
      "inputs": [
        {
          "internalType": "address",
          "name": "user",
          "type": "address"
        }
      ],
      "name": "faucetCooldownRemaining",
      "outputs": [
        {
          "internalType": "uint256",
          "name": "",
          "type": "uint256"
        }
      ],
      "stateMutability": "view",
      "type": "function"
    },
    {
      "inputs": [],
      "name": "faucetEnabled",
      "outputs": [
        {
          "internalType": "bool",
          "name": "",
          "type": "bool"
        }
      ],
      "stateMutability": "view",
      "type": "function"
    },
    {
      "inputs": [
        {
          "internalType": "address",
          "name": "",
          "type": "address"
        }
      ],
      "name": "lastFaucetClaim",
      "outputs": [
        {
          "internalType": "uint256",
          "name": "",
          "type": "uint256"
        }
      ],
      "stateMutability": "view",
      "type": "function"
    },
    {
      "inputs": [
        {
          "internalType": "address",
          "name": "to",
          "type": "address"
        },
        {
          "internalType": "uint256",
          "name": "amount",
          "type": "uint256"
        }
      ],
      "name": "mint",
      "outputs": [],
      "stateMutability": "nonpayable",
      "type": "function"
    },
    {
      "inputs": [],
      "name": "name",
      "outputs": [
        {
          "internalType": "string",
          "name": "",
          "type": "string"
        }
      ],
      "stateMutability": "view",
      "type": "function"
    },
    {
      "inputs": [],
      "name": "owner",
      "outputs": [
        {
          "internalType": "address",
          "name": "",
          "type": "address"
        }
      ],
      "stateMutability": "view",
      "type": "function"
    },
    {
      "inputs": [],
      "name": "pendingOwner",
      "outputs": [
        {
          "internalType": "address",
          "name": "",
          "type": "address"
        }
      ],
      "stateMutability": "view",
      "type": "function"
    },
    {
      "inputs": [],
      "name": "renounceOwnership",
      "outputs": [],
      "stateMutability": "nonpayable",
      "type": "function"
    },
    {
      "inputs": [],
      "name": "symbol",
      "outputs": [
        {
          "internalType": "string",
          "name": "",
          "type": "string"
        }
      ],
      "stateMutability": "view",
      "type": "function"
    },
    {
      "inputs": [],
      "name": "toggleFaucet",
      "outputs": [],
      "stateMutability": "nonpayable",
      "type": "function"
    },
    {
      "inputs": [],
      "name": "totalSupply",
      "outputs": [
        {
          "internalType": "uint256",
          "name": "",
          "type": "uint256"
        }
      ],
      "stateMutability": "view",
      "type": "function"
    },
    {
      "inputs": [
        {
          "internalType": "address",
          "name": "to",
          "type": "address"
        },
        {
          "internalType": "uint256",
          "name": "value",
          "type": "uint256"
        }
      ],
      "name": "transfer",
      "outputs": [
        {
          "internalType": "bool",
          "name": "",
          "type": "bool"
        }
      ],
      "stateMutability": "nonpayable",
      "type": "function"
    },
    {
      "inputs": [
        {
          "internalType": "address",
          "name": "from",
          "type": "address"
        },
        {
          "internalType": "address",
          "name": "to",
          "type": "address"
        },
        {
          "internalType": "uint256",
          "name": "value",
          "type": "uint256"
        }
      ],
      "name": "transferFrom",
      "outputs": [
        {
          "internalType": "bool",
          "name": "",
          "type": "bool"
        }
      ],
      "stateMutability": "nonpayable",
      "type": "function"
    },
    {
      "inputs": [
        {
          "internalType": "address",
          "name": "newOwner",
          "type": "address"
        }
      ],
      "name": "transferOwnership",
      "outputs": [],
      "stateMutability": "nonpayable",
      "type": "function"
    }
  ],
  "bytecode": "0x608034610436576113139081380390601f19601f818185011683019460018060401b039484871086881117610346578085926040988952833960209485918101031261043657519361004f61043b565b91600c83526b23b7a63ab237902a37b5b2b760a11b8584015261007061043b565b906002825261474f60f01b868301528351918383116103465760039283546001968782811c9216801561042c575b8a8310146104165781858493116103c5575b5089908583116001146103675760009261035c575b505060001982861b1c191690861b1783555b80519384116103465760049586548681811c9116801561033c575b89821014610327579081848796959493116102d0575b508892851160011461026d5750600093610262575b505082841b92600019911b1c19161782555b331561024b57600680546001600160a01b03199081169091556005805491821633908117909155865192916001600160a01b03167f8be0079c531659141344cd1fd0a4f28419497f9722a3daafe3b4186f6b6457e0600080a360ff1960085416176008556b033b2e3c9fd0803ce8000000841161021757506002549083820180921161020257506000917fddf252ad1be2c89b69c2b068fc378daa952ba7f163c4a11628f55a4df523b3ef9160025533835282815284832084815401905584519384523393a351610eb8908161045b8239f35b601190634e487b7160e01b6000525260246000fd5b8260649262461bcd60e51b8352820152601260248201527145786365656473206d617820737570706c7960701b6044820152fd5b8451631e4fbdf760e01b8152600081840152602490fd5b01519150388061011d565b869593929193169287600052886000209360005b8a8282106102ba57505085116102a0575b50505050811b01825561012f565b01519060f884600019921b161c1916905538808080610292565b8385015187558998909601959384019301610281565b90919293945087600052886000208480880160051c8201928b891061031e575b918991899897969594930160051c01915b82811061030f575050610108565b60008155889750899101610301565b925081926102f0565b602288634e487b7160e01b6000525260246000fd5b90607f16906100f2565b634e487b7160e01b600052604160045260246000fd5b0151905038806100c5565b908989941691876000528b6000209260005b8d8282106103af5750508411610397575b505050811b0183556100d7565b015160001983881b60f8161c1916905538808061038a565b8385015186558c97909501949384019301610379565b90915085600052896000208580850160051c8201928c861061040d575b918a91869594930160051c01915b8281106103fe5750506100b0565b600081558594508a91016103f0565b925081926103e2565b634e487b7160e01b600052602260045260246000fd5b91607f169161009e565b600080fd5b60408051919082016001600160401b038111838210176103465760405256fe60806040908082526004918236101561001757600080fd5b600092833560e01c92836306fdde0314610a2657508263095ea7b31461097b57826318160ddd1461095c57826323b872dd1461091f578263295711f9146108c2578263313ce567146108a657826332cb6b0c1461087f57826340c10f19146107a057826342966c68146107825782635d1c3f041461075e57826370a0823114610727578263715018a6146106c0578263766976401461069c57826379ba50971461060b57826379cc6790146105d85782637d1d5d19146105bb5782638a877205146105835782638da5cb5b1461055a57826395d89b4114610439578263a9059cbb14610408578263b44bae8e146103db578263dd62ed3e14610392578263de5f72fd146101d757508163e30c3978146101aa575063f2fde38b1461013a57600080fd5b346101a75760203660031901126101a757610153610b49565b61015b610da9565b600680546001600160a01b0319166001600160a01b039283169081179091556005549091167f38d16b8cac22d99fc7c124b9cd0de2d3fa1faef420bfe791d8c362d765e227008380a380f35b80fd5b9050346101d357816003193601126101d35760065490516001600160a01b039091168152602090f35b5080fd5b8382346101d357816003193601126101d35760ff600854161561035e5733825260206007815281832054610e10810180911161034b5742106103175760025491683635c9adc5dea00000928381018091116102b6576b033b2e3c9fd0803ce8000000106102df5733845260078252428185205533156102c9576002548381018091116102b657907fcc2505ec091bdc5fd7142331ffc3324587b40a9880fc5272f28515d2249fe05a9291600255338552848252808520848154019055805184815285600080516020610e63833981519152843393a3519283523392a280f35b634e487b7160e01b855260118652602485fd5b5163ec442f0560e01b8152808501849052602490fd5b5162461bcd60e51b815280850191909152601260248201527113585e081cdd5c1c1b1e481c995858da195960721b6044820152606490fd5b8390606492519162461bcd60e51b8352820152600f60248201526e436f6f6c646f776e2061637469766560881b6044820152fd5b634e487b7160e01b845260118552602484fd5b5162461bcd60e51b8152602081840152600f60248201526e11985d58d95d08191a5cd8589b1959608a1b6044820152606490fd5b8382346101d357806003193601126101d357806020926103b0610b49565b6103b8610b64565b6001600160a01b0391821683526001865283832091168252845220549051908152f35b8382346101d35760203660031901126101d3576020906104016103fc610b49565b610b9d565b9051908152f35b8382346101d357806003193601126101d357602090610432610428610b49565b6024359033610cdd565b5160018152f35b8382346101d357816003193601126101d35780519082845460018160011c9060018316928315610550575b602093848410811461053d5783885290811561052157506001146104cc575b505050829003601f01601f191682019267ffffffffffffffff8411838510176104b957508291826104b5925282610b00565b0390f35b634e487b7160e01b815260418552602490fd5b8787529192508591837f8a35acfbc15ff81a39ae7d344fd709f28e8600b4aa8c65c6b64bfe7fe36bd19b5b83851061050d5750505050830101858080610483565b8054888601830152930192849082016104f7565b60ff1916878501525050151560051b8401019050858080610483565b634e487b7160e01b895260228a52602489fd5b91607f1691610464565b8382346101d357816003193601126101d35760055490516001600160a01b039091168152602090f35b8382346101d35760203660031901126101d35760209181906001600160a01b036105ab610b49565b1681526007845220549051908152f35b8382346101d357816003193601126101d35760209051610e108152f35b8382346101d3573660031901126101a7576106086105f4610b49565b60243590610603823383610c0a565b610dd5565b80f35b915034610698578260031936011261069857600654916001600160a01b039133838516036106815750506bffffffffffffffffffffffff60a01b8092166006556005549133908316176005553391167f8be0079c531659141344cd1fd0a4f28419497f9722a3daafe3b4186f6b6457e08380a380f35b60249250519063118cdaa760e01b82523390820152fd5b8280fd5b8382346101d357816003193601126101d35760209051683635c9adc5dea000008152f35b83346101a757806003193601126101a7576106d9610da9565b600680546001600160a01b031990811690915560058054918216905581906001600160a01b03167f8be0079c531659141344cd1fd0a4f28419497f9722a3daafe3b4186f6b6457e08280a380f35b8382346101d35760203660031901126101d35760209181906001600160a01b0361074f610b49565b16815280845220549051908152f35b8382346101d357816003193601126101d35760209060ff6008541690519015158152f35b8390346101d35760203660031901126101d357610608903533610dd5565b9150346106985780600319360112610698576107ba610b49565b90602435916107c7610da9565b600254906b033b2e3c9fd0803ce80000006107e28584610b7a565b11610847576001600160a01b0316938415610830575082600080516020610e63833981519152926108168795602094610b7a565b60025585855284835280852082815401905551908152a380f35b825163ec442f0560e01b8152908101869052602490fd5b825162461bcd60e51b8152602081870152601260248201527145786365656473206d617820737570706c7960701b6044820152606490fd5b8382346101d357816003193601126101d357602090516b033b2e3c9fd0803ce80000008152f35b8382346101d357816003193601126101d3576020905160128152f35b8382346101d357816003193601126101d35760207f87e7975983dfa9eadba810a775cce04da400ce8dcc3f201b0e2def605d58911d91610900610da9565b6008549060ff8083161516809260ff191617600855519015158152a180f35b8382346101d35760603660031901126101d357602090610432610940610b49565b610948610b64565b60443591610957833383610c0a565b610cdd565b8382346101d357816003193601126101d3576020906002549051908152f35b90915034610698578160031936011261069857610996610b49565b602435903315610a0f576001600160a01b03169182156109f857508083602095338152600187528181208582528752205582519081527f8c5be1e5ebec7d5bd14f71427d1e84f3dd0314c0f7b2291e5b200ac8c7c3b925843392a35160018152f35b8351634a1406b160e11b8152908101859052602490fd5b835163e602df0560e01b8152808401869052602490fd5b849192346106985782600319360112610698578260035460018160011c9060018316928315610af6575b602093848410811461053d578388529081156105215750600114610aa057505050829003601f01601f191682019267ffffffffffffffff8411838510176104b957508291826104b5925282610b00565b600387529192508591837fc2575a0e9e593c00f959f8c92f12db2869c3395a3b0502d05e2516446f71f85b5b838510610ae25750505050830101858080610483565b805488860183015293019284908201610acc565b91607f1691610a50565b6020808252825181830181905290939260005b828110610b3557505060409293506000838284010152601f8019910116010190565b818101860151848201604001528501610b13565b600435906001600160a01b0382168203610b5f57565b600080fd5b602435906001600160a01b0382168203610b5f57565b91908201809211610b8757565b634e487b7160e01b600052601160045260246000fd5b6001600160a01b0316600090815260076020526040812054610e108082019291838111610bf65783421015610bef5742900301918211610bdb575090565b634e487b7160e01b81526011600452602490fd5b5050905090565b634e487b7160e01b83526011600452602483fd5b9160018060a01b038093169160009383855260016020526040938486209183169182875260205284862054926000198410610c49575b50505050505050565b848410610cad57508015610c95578115610c7d57855260016020528385209085526020520391205538808080808080610c40565b8451634a1406b160e11b815260048101879052602490fd5b845163e602df0560e01b815260048101879052602490fd5b8551637dc7a0d960e11b81526001600160a01b039190911660048201526024810184905260448101859052606490fd5b916001600160a01b03808416928315610d905716928315610d775760009083825281602052604082205490838210610d4557509160408282600080516020610e63833981519152958760209652828652038282205586815220818154019055604051908152a3565b60405163391434e360e21b81526001600160a01b03919091166004820152602481019190915260448101839052606490fd5b60405163ec442f0560e01b815260006004820152602490fd5b604051634b637e8f60e11b815260006004820152602490fd5b6005546001600160a01b03163303610dbd57565b60405163118cdaa760e01b8152336004820152602490fd5b906001600160a01b038216908115610d905760009282845283602052604084205490828210610e30575081600080516020610e63833981519152926020928587528684520360408620558060025403600255604051908152a3565b60405163391434e360e21b81526001600160a01b03919091166004820152602481019190915260448101829052606490fdfeddf252ad1be2c89b69c2b068fc378daa952ba7f163c4a11628f55a4df523b3efa2646970667358221220a081cd9c0c298b9cbb18e5f19c899f33116a7ff8b3c9e0ce110ddcae5db5921564736f6c63430008190033",
  "linkReferences": {},
  "deployedLinkReferences": {}
}