{
  "_format": "hh-sol-artifact-1",
  "contractName": "LudoVault",
  "sourceName": "contracts/LudoVault.sol",
  "abi": [
    {
      "inputs": [
        {
          "internalType": "address",
          "name": "_signer",
          "type": "address"
        },
        {
          "internalType": "address",
          "name": "_treasury",
          "type": "address"
        },
        {
          "internalType": "uint256",
          "name": "_feeBps",
          "type": "uint256"
        }
      ],
      "stateMutability": "nonpayable",
      "type": "constructor"
    },
    {
      "inputs": [],
      "name": "AlreadyJoined",
      "type": "error"
    },
    {
      "inputs": [],
      "name": "DeadlineExpired",
      "type": "error"
    },
    {
      "inputs": [],
      "name": "ECDSAInvalidSignature",
      "type": "error"
    },
    {
      "inputs": [
        {
          "internalType": "uint256",
          "name": "length",
          "type": "uint256"
        }
      ],
      "name": "ECDSAInvalidSignatureLength",
      "type": "error"
    },
    {
      "inputs": [
        {
          "internalType": "bytes32",
          "name": "s",
          "type": "bytes32"
        }
      ],
      "name": "ECDSAInvalidSignatureS",
      "type": "error"
    },
    {
      "inputs": [],
      "name": "EmergencyDelayNotPassed",
      "type": "error"
    },
    {
      "inputs": [],
      "name": "InvalidAddress",
      "type": "error"
    },
    {
      "inputs": [],
      "name": "InvalidAmount",
      "type": "error"
    },
    {
      "inputs": [],
      "name": "InvalidFee",
      "type": "error"
    },
    {
      "inputs": [],
      "name": "InvalidRoomStatus",
      "type": "error"
    },
    {
      "inputs": [],
      "name": "InvalidShortString",
      "type": "error"
    },
    {
      "inputs": [],
      "name": "InvalidSignature",
      "type": "error"
    },
    {
      "inputs": [],
      "name": "NonceAlreadyUsed",
      "type": "error"
    },
    {
      "inputs": [],
      "name": "NotRoomParticipant",
      "type": "error"
    },
    {
      "inputs": [
        {
          "internalType": "address",
          "name": "owner",
          "type": "address"
        }
      ],
      "name": "OwnableInvalidOwner",
      "type": "error"
    },
    {
      "inputs": [
        {
          "internalType": "address",
          "name": "account",
          "type": "address"
        }
      ],
      "name": "OwnableUnauthorizedAccount",
      "type": "error"
    },
    {
      "inputs": [],
      "name": "ReentrancyGuardReentrantCall",
      "type": "error"
    },
    {
      "inputs": [],
      "name": "RoomFull",
      "type": "error"
    },
    {
      "inputs": [],
      "name": "RoomNotFound",
      "type": "error"
    },
    {
      "inputs": [
        {
          "internalType": "string",
          "name": "str",
          "type": "string"
        }
      ],
      "name": "StringTooLong",
      "type": "error"
    },
    {
      "inputs": [],
      "name": "TransferFailed",
      "type": "error"
    },
    {
      "anonymous": false,
      "inputs": [],
      "name": "EIP712DomainChanged",
      "type": "event"
    },
    {
      "anonymous": false,
      "inputs": [
        {
          "indexed": true,
          "internalType": "bytes32",
          "name": "roomId",
          "type": "bytes32"
        },
        {
          "indexed": true,
          "internalType": "address",
          "name": "player",
          "type": "address"
        },
        {
          "indexed": false,
          "internalType": "uint256",
          "name": "amount",
          "type": "uint256"
        }
      ],
      "name": "EmergencyWithdraw",
      "type": "event"
    },
    {
      "anonymous": false,
      "inputs": [
        {
          "indexed": false,
          "internalType": "uint256",
          "name": "oldFee",
          "type": "uint256"
        },
        {
          "indexed": false,
          "internalType": "uint256",
          "name": "newFee",
          "type": "uint256"
        }
      ],
      "name": "FeeUpdated",
      "type": "event"
    },
    {
      "anonymous": false,
      "inputs": [
        {
          "indexed": true,
          "internalType": "bytes32",
          "name": "roomId",
          "type": "bytes32"
        },
        {
          "indexed": true,
          "internalType": "address",
          "name": "winner",
          "type": "address"
        },
        {
          "indexed": false,
          "internalType": "uint256",
          "name": "payout",
          "type": "uint256"
        },
        {
          "indexed": false,
          "internalType": "uint256",
          "name": "fee",
          "type": "uint256"
        }
      ],
      "name": "GameFinished",
      "type": "event"
    },
    {
      "anonymous": false,
      "inputs": [
        {
          "indexed": true,
          "internalType": "address",
          "name": "previousOwner",
          "type": "address"
        },
        {
          "indexed": true,
          "internalType": "address",
          "name": "newOwner",
          "type": "address"
        }
      ],
      "name": "OwnershipTransferStarted",
      "type": "event"
    },
    {
      "anonymous": false,
      "inputs": [
        {
          "indexed": true,
          "internalType": "address",
          "name": "previousOwner",
          "type": "address"
        },
        {
          "indexed": true,
          "internalType": "address",
          "name": "newOwner",
          "type": "address"
        }
      ],
      "name": "OwnershipTransferred",
      "type": "event"
    },
    {
      "anonymous": false,
      "inputs": [
        {
          "indexed": true,
          "internalType": "bytes32",
          "name": "roomId",
          "type": "bytes32"
        },
        {
          "indexed": true,
          "internalType": "address",
          "name": "creator",
          "type": "address"
        },
        {
          "indexed": false,
          "internalType": "uint256",
          "name": "refundAmount",
          "type": "uint256"
        }
      ],
      "name": "RoomCancelled",
      "type": "event"
    },
    {
      "anonymous": false,
      "inputs": [
        {
          "indexed": true,
          "internalType": "bytes32",
          "name": "roomId",
          "type": "bytes32"
        },
        {
          "indexed": true,
          "internalType": "address",
          "name": "creator",
          "type": "address"
        },
        {
          "indexed": false,
          "internalType": "uint256",
          "name": "entryAmount",
          "type": "uint256"
        },
        {
          "indexed": false,
          "internalType": "uint256",
          "name": "maxPlayers",
          "type": "uint256"
        }
      ],
      "name": "RoomCreated",
      "type": "event"
    },
    {
      "anonymous": false,
      "inputs": [
        {
          "indexed": true,
          "internalType": "bytes32",
          "name": "roomId",
          "type": "bytes32"
        },
        {
          "indexed": true,
          "internalType": "address",
          "name": "player",
          "type": "address"
        },
        {
          "indexed": false,
          "internalType": "uint256",
          "name": "currentPot",
          "type": "uint256"
        },
        {
          "indexed": false,
          "internalType": "uint256",
          "name": "playersJoined",
          "type": "uint256"
        }
      ],
      "name": "RoomJoined",
      "type": "event"
    },
    {
      "anonymous": false,
      "inputs": [
        {
          "indexed": true,
          "internalType": "address",
          "name": "oldSigner",
          "type": "address"
        },
        {
          "indexed": true,
          "internalType": "address",
          "name": "newSigner",
          "type": "address"
        }
      ],
      "name": "SignerUpdated",
      "type": "event"
    },
    {
      "anonymous": false,
      "inputs": [
        {
          "indexed": true,
          "internalType": "address",
          "name": "oldTreasury",
          "type": "address"
        },
        {
          "indexed": true,
          "internalType": "address",
          "name": "newTreasury",
          "type": "address"
        }
      ],
      "name": "TreasuryUpdated",
      "type": "event"
    },
    {
      "inputs": [],
      "name": "BPS_DENOMINATOR",
      "outputs": [
        {
          "internalType": "uint256",
          "name": "",
          "type": "uint256"
        }
      ],
      "stateMutability": "view",
      "type": "function"
    },
    {
      "inputs": [],
      "name": "EMERGENCY_DELAY",
      "outputs": [
        {
          "internalType": "uint256",
          "name": "",
          "type": "uint256"
        }
      ],
      "stateMutability": "view",
      "type": "function"
    },
    {
      "inputs": [],
      "name": "MAX_FEE_BPS",
      "outputs": [
        {
          "internalType": "uint256",
          "name": "",
          "type": "uint256"
        }
      ],
      "stateMutability": "view",
      "type": "function"
    },
    {
      "inputs": [],
      "name": "PAYOUT_TYPEHASH",
      "outputs": [
        {
          "internalType": "bytes32",
          "name": "",
          "type": "bytes32"
        }
      ],
      "stateMutability": "view",
      "type": "function"
    },
    {
      "inputs": [],
      "name": "ROOM_TIMEOUT",
      "outputs": [
        {
          "internalType": "uint256",
          "name": "",
          "type": "uint256"
        }
      ],
      "stateMutability": "view",
      "type": "function"
    },
    {
      "inputs": [],
      "name": "acceptOwnership",
      "outputs": [],
      "stateMutability": "nonpayable",
      "type": "function"
    },
    {
      "inputs": [
        {
          "internalType": "bytes32",
          "name": "roomId",
          "type": "bytes32"
        }
      ],
      "name": "cancelRoom",
      "outputs": [],
      "stateMutability": "nonpayable",
      "type": "function"
    },
    {
      "inputs": [
        {
          "internalType": "bytes32",
          "name": "roomId",
          "type": "bytes32"
        },
        {
          "internalType": "address",
          "name": "winner",
          "type": "address"
        },
        {
          "internalType": "uint256",
          "name": "amount",
          "type": "uint256"
        },
        {
          "internalType": "uint256",
          "name": "nonce",
          "type": "uint256"
        },
        {
          "internalType": "uint256",
          "name": "deadline",
          "type": "uint256"
        },
        {
          "internalType": "bytes",
          "name": "signature",
          "type": "bytes"
        }
      ],
      "name": "claimPayout",
      "outputs": [],
      "stateMutability": "nonpayable",
      "type": "function"
    },
    {
      "inputs": [
        {
          "internalType": "bytes32",
          "name": "roomId",
          "type": "bytes32"
        },
        {
          "internalType": "uint256",
          "name": "entryAmount",
          "type": "uint256"
        },
        {
          "internalType": "uint256",
          "name": "maxPlayers",
          "type": "uint256"
        }
      ],
      "name": "createRoom",
      "outputs": [],
      "stateMutability": "payable",
      "type": "function"
    },
    {
      "inputs": [],
      "name": "domainSeparator",
      "outputs": [
        {
          "internalType": "bytes32",
          "name": "",
          "type": "bytes32"
        }
      ],
      "stateMutability": "view",
      "type": "function"
    },
    {
      "inputs": [],
      "name": "eip712Domain",
      "outputs": [
        {
          "internalType": "bytes1",
          "name": "fields",
          "type": "bytes1"
        },
        {
          "internalType": "string",
          "name": "name",
          "type": "string"
        },
        {
          "internalType": "string",
          "name": "version",
          "type": "string"
        },
        {
          "internalType": "uint256",
          "name": "chainId",
          "type": "uint256"
        },
        {
          "internalType": "address",
          "name": "verifyingContract",
          "type": "address"
        },
        {
          "internalType": "bytes32",
          "name": "salt",
          "type": "bytes32"
        },
        {
          "internalType": "uint256[]",
          "name": "extensions",
          "type": "uint256[]"
        }
      ],
      "stateMutability": "view",
      "type": "function"
    },
    {
      "inputs": [
        {
          "internalType": "bytes32",
          "name": "roomId",
          "type": "bytes32"
        }
      ],
      "name": "emergencyWithdraw",
      "outputs": [],
      "stateMutability": "nonpayable",
      "type": "function"
    },
    {
      "inputs": [],
      "name": "feeBps",
      "outputs": [
        {
          "internalType": "uint256",
          "name": "",
          "type": "uint256"
        }
      ],
      "stateMutability": "view",
      "type": "function"
    },
    {
      "inputs": [
        {
          "internalType": "bytes32",
          "name": "roomId",
          "type": "bytes32"
        }
      ],
      "name": "getParticipants",
      "outputs": [
        {
          "internalType": "address[]",
          "name": "",
          "type": "address[]"
        }
      ],
      "stateMutability": "view",
      "type": "function"
    },
    {
      "inputs": [
        {
          "internalType": "bytes32",
          "name": "roomId",
          "type": "bytes32"
        }
      ],
      "name": "getRoom",
      "outputs": [
        {
          "components": [
            {
              "internalType": "address",
              "name": "creator",
              "type": "address"
            },
            {
              "internalType": "address[]",
              "name": "participants",
              "type": "address[]"
            },
            {
              "internalType": "uint256",
              "name": "maxPlayers",
              "type": "uint256"
            },
            {
              "internalType": "uint256",
              "name": "entryAmount",
              "type": "uint256"
            },
            {
              "internalType": "uint256",
              "name": "pot",
              "type": "uint256"
            },
            {
              "internalType": "uint256",
              "name": "createdAt",
              "type": "uint256"
            },
            {
              "internalType": "enum LudoVault.RoomStatus",
              "name": "status",
              "type": "uint8"
            }
          ],
          "internalType": "struct LudoVault.Room",
          "name": "",
          "type": "tuple"
        }
      ],
      "stateMutability": "view",
      "type": "function"
    },
    {
      "inputs": [
        {
          "internalType": "bytes32",
          "name": "roomId",
          "type": "bytes32"
        }
      ],
      "name": "joinRoom",
      "outputs": [],
      "stateMutability": "payable",
      "type": "function"
    },
    {
      "inputs": [],
      "name": "owner",
      "outputs": [
        {
          "internalType": "address",
          "name": "",
          "type": "address"
        }
      ],
      "stateMutability": "view",
      "type": "function"
    },
    {
      "inputs": [],
      "name": "pendingOwner",
      "outputs": [
        {
          "internalType": "address",
          "name": "",
          "type": "address"
        }
      ],
      "stateMutability": "view",
      "type": "function"
    },
    {
      "inputs": [],
      "name": "renounceOwnership",
      "outputs": [],
      "stateMutability": "nonpayable",
      "type": "function"
    },
    {
      "inputs": [
        {
          "internalType": "bytes32",
          "name": "",
          "type": "bytes32"
        }
      ],
      "name": "rooms",
      "outputs": [
        {
          "internalType": "address",
          "name": "creator",
          "type": "address"
        },
        {
          "internalType": "uint256",
          "name": "maxPlayers",
          "type": "uint256"
        },
        {
          "internalType": "uint256",
          "name": "entryAmount",
          "type": "uint256"
        },
        {
          "internalType": "uint256",
          "name": "pot",
          "type": "uint256"
        },
        {
          "internalType": "uint256",
          "name": "createdAt",
          "type": "uint256"
        },
        {
          "internalType": "enum LudoVault.RoomStatus",
          "name": "status",
          "type": "uint8"
        }
      ],
      "stateMutability": "view",
      "type": "function"
    },
    {
      "inputs": [
        {
          "internalType": "uint256",
          "name": "newFeeBps",
          "type": "uint256"
        }
      ],
      "name": "setFee",
      "outputs": [],
      "stateMutability": "nonpayable",
      "type": "function"
    },
    {
      "inputs": [
        {
          "internalType": "address",
          "name": "newSigner",
          "type": "address"
        }
      ],
      "name": "setSigner",
      "outputs": [],
      "stateMutability": "nonpayable",
      "type": "function"
    },
    {
      "inputs": [
        {
          "internalType": "address",
          "name": "newTreasury",
          "type": "address"
        }
      ],
      "name": "setTreasury",
      "outputs": [],
      "stateMutability": "nonpayable",
      "type": "function"
    },
    {
      "inputs": [],
      "name": "signer",
      "outputs": [
        {
          "internalType": "address",
          "name": "",
          "type": "address"
        }
      ],
      "stateMutability": "view",
      "type": "function"
    },
    {
      "inputs": [
        {
          "internalType": "address",
          "name": "newOwner",
          "type": "address"
        }
      ],
      "name": "transferOwnership",
      "outputs": [],
      "stateMutability": "nonpayable",
      "type": "function"
    },
    {
      "inputs": [],
      "name": "treasury",
      "outputs": [
        {
          "internalType": "address",
          "name": "",
          "type": "address"
        }
      ],
      "stateMutability": "view",
      "type": "function"
    },
    {
      "inputs": [
        {
          "internalType": "bytes32",
          "name": "",
          "type": "bytes32"
        }
      ],
      "name": "usedNonces",
      "outputs": [
        {
          "internalType": "bool",
          "name": "",
          "type": "bool"
        }
      ],
      "stateMutability": "view",
      "type": "function"
    }
  ],
  "bytecode": "0x6101603461025f57601f611f6d38819003918201601f19168301926001600160401b039290918385118386101761026457816060928492604097885283398101031261025f5761004e81610295565b928061005c60208401610295565b92015181519261006b8461027a565b60098452602084019468131d591bd5985d5b1d60ba1b865283519161008f8361027a565b600183526020830191603160f81b835260009860018a5533156102475760018060a01b03199485600254166002556001549460018060a01b039533888216176001558c7f8be0079c531659141344cd1fd0a4f28419497f9722a3daafe3b4186f6b6457e0883393169180a36101038a6102a9565b9a6101209b8c526101138361046f565b9a6101409b8c52519020918260e0525190206101009b818d524660a05289519160208301937f8b73c3c69bb8fe3d512ecc4cf759cc79239f7b179b0ffacaa9a75d522b39400f85528b84015260608301524660808301523060a083015260a0825260c08201948286109086111761023357508389525190206080523060c05283169081158015610229575b61021a57506103e885116102095783600554161760055516906007541617600755600655519161194693846106278539608051846114df015260a051846115ab015260c051846114a9015260e0518461152e0152518361155401525182610b3f01525181610b690152f35b85516358d620b360e01b8152600490fd5b63e6c4247b60e01b8152600490fd5b508383161561019e565b634e487b7160e01b81526041600452602490fd5b8651631e4fbdf760e01b8152600481018b9052602490fd5b600080fd5b634e487b7160e01b600052604160045260246000fd5b604081019081106001600160401b0382111761026457604052565b51906001600160a01b038216820361025f57565b80516020919082811015610343575090601f8251116102e457808251920151908083106102d557501790565b82600019910360031b1b161790565b90604051809263305a27a960e01b82528060048301528251908160248401526000935b82851061032a575050604492506000838284010152601f80199101168101030190fd5b8481018201518686016044015293810193859350610307565b6001600160401b038111610264576003928354926001938481811c91168015610465575b8382101461044f57601f8111610419575b5081601f84116001146103b457509282939183926000946103a9575b50501b9160001990841b1c191617905560ff90565b015192503880610394565b919083601f1981168760005284600020946000905b888383106103ff57505050106103e7575b505050811b01905560ff90565b015160001983861b60f8161c191690553880806103da565b8587015188559096019594850194879350908101906103c9565b8560005284601f84600020920160051c820191601f860160051c015b828110610443575050610378565b60008155018590610435565b634e487b7160e01b600052602260045260246000fd5b90607f1690610367565b805160209190828110156104fa575090601f82511161049b57808251920151908083106102d557501790565b90604051809263305a27a960e01b82528060048301528251908160248401526000935b8285106104e1575050604492506000838284010152601f80199101168101030190fd5b84810182015186860160440152938101938593506104be565b6001600160401b038111610264576004928354926001938481811c9116801561061c575b8382101461060757601f81116105d1575b5081601f841160011461056c5750928293918392600094610561575b50501b916000199060031b1c191617905560ff90565b01519250388061054b565b919083601f1981168760005284600020946000905b888383106105b7575050501061059e57505050811b01905560ff90565b015160001960f88460031b161c191690553880806103da565b858701518855909601959485019487935090810190610581565b8560005284601f84600020920160051c820191601f860160051c015b8281106105fb57505061052f565b600081550185906105ed565b602286634e487b7160e01b6000525260246000fd5b90607f169061051e56fe608060405260048036101561001357600080fd5b600090813560e01c80630b0235be146111d05780632204b90914611195578063238ac9331461116c57806324a9d8531461114e5780634b29b4c414610fd057806361d027b314610fa757806369fe0e2d14610f375780636c19e78314610ec5578063715018a614610e5e57806375870d6514610cee57806379ba509714610c6757806382944e2d14610c4957806384b0196e14610b29578063893c974114610b0d5780638da5cb5b14610ae457806392776b4f146109b35780639a7f487e1461088b578063ad9a286614610724578063c8f6e40d14610365578063d55be8c614610348578063d7fbc2e4146102d4578063e1a45218146102b7578063e30c39781461028e578063f0f442601461020d578063f2fde38b1461019f578063f698da25146101795763feb617241461014857600080fd5b3461017557602036600319011261017557604060209260ff92358152600884522054166040519015158152f35b5080fd5b823461019c578060031936011261019c5760206101946114a6565b604051908152f35b80fd5b823461019c57602036600319011261019c576101b961123f565b6101c161147a565b600280546001600160a01b0319166001600160a01b039283169081179091556001549091167f38d16b8cac22d99fc7c124b9cd0de2d3fa1faef420bfe791d8c362d765e227008380a380f35b50346101755760203660031901126101755761022761123f565b61022f61147a565b6001600160a01b0390811691821561027f5750600754826001600160601b0360a01b821617600755167f4ab5be82436d353e61ca18726e984e561f5c1cc7c6d38b29d2553c790434705a8380a380f35b60405163e6c4247b60e01b8152fd5b823461019c578060031936011261019c576002546040516001600160a01b039091168152602090f35b823461019c578060031936011261019c5760206040516127108152f35b503461017557602036600319011261017557610346604060c093833581526009602052209160018060a01b03835416926002810154916003820154908201549060ff600660058501549401541693604051968752602087015260408601526060850152608084015260a083019061129a565bf35b823461019c578060031936011261019c5760206040516103e88152f35b50346101755760c03660031901126101755780356024356001600160a01b0381168103610720576064359267ffffffffffffffff8060a4351161071c5736602360a43501121561071c578060a4358301351161071c573660a43583810135016024011161071c576103d4611457565b608435421161070c576040516020810190858252866040820152604081526060810192818410908411176106f9578260405251902090818752600860205260ff6040882054166106ec57508386526009602052604086209460ff60068701541660058110156106d9576002036106c85786876001880154905b81811061068b575b50501561067a5761052a60426105339260405160208101917ffd82c65ef44d047431783b54c7e66891afcf0da94e453dfcec91df5762287c7e835289604083015260018060a01b0389166060830152604435608083015260a082015260843560c082015260c081526104c6816112bd565b5190206104d16114a6565b906040519161190160f01b835260028301526022820152206104f760a43586013561140b565b90610505604051928361130b565b60a4358681013580845290602401602084013789602060a435880135840101526117d5565b90929192611811565b6005546001600160a01b0390811691160361066a578552600860205260036040862060ff199060018282541617905560068601541617600685015560065480604435029060443582041460443515171561065757612710900490816044350394604435861161064457818791015581610616575b85808080886001600160a01b0388165af16105c0611427565b501561060757507fa0e7734c8654e287a45f16fde066023ac9ca1cd19e028986989d5c4d5f1f520e916040918251958652602086015260018060a01b031693a36001815580f35b6040516312171d8360e31b8152fd5b858080808560018060a01b03600754165af1610630611427565b506105a7576040516312171d8360e31b8152fd5b634e487b7160e01b875260118252602487fd5b634e487b7160e01b865260118252602486fd5b50604051638baa579f60e01b8152fd5b604051634ae76adf60e01b81528390fd5b6106988160018b01611389565b905460039190911b1c6001600160a01b03908116908816146106bc5760010161044d565b50505060013880610455565b60405163e4ba2b1160e01b81528390fd5b634e487b7160e01b885260218452602488fd5b623f613760e71b81529050fd5b634e487b7160e01b885260418452602488fd5b50604051631ab7da6b60e01b8152fd5b8580fd5b8380fd5b50903461019c57602080600319360112610175578160c0604051610747816112bd565b8281526060848201528260408201528260608201528260808201528260a0820152015282358252600981526040822060405192610783846112bd565b81546001600160a01b0390811685526001949093906107a384870161132d565b95828201968752600285015491604081019283526003860154936060820194855289870154956080830196875260ff600660058a01549960a086019a8b5201541660c084019b600582101561087857508b94939291945260405199818b52896101008c01935116828c0152519860e060408c01528951809352816101208c019a0194905b83821061086157508a808b61085d8f8d8d8d8d5160608801525160808701525160a08601525160c08501525160e084019061129a565b0390f35b855181168b52998201999482019490840190610827565b634e487b7160e01b835260219052602482fd5b506060366003190112610175578035604435916108a6611457565b341580156109a7575b61098f5760028310801561099e575b61098f57818452600960205260ff600660408620015416600581101561097c5761096d5760069082855260096020526040852090336001600160601b0360a01b83541617825561091133600184016113b7565b846002830155346003830155349082015542600582015501600160ff198254161790556040519134835260208301527f7205d4960f11b42d9694576da1d12e22b637d2eaac623cc7a27f41509be1352360403393a36001815580f35b60405163e4ba2b1160e01b8152fd5b634e487b7160e01b855260218252602485fd5b60405163162908e360e11b8152fd5b508083116108be565b506024353414156108af565b50346101755760203660031901126101755780356109cf611457565b8083526009602052604083206006810192835460ff8116926005841015610ad15760018094036106c85780546001600160a01b03919082163303610ac05783879387936003848c80998b970180549987610a2b6001860161132d565b9760ff19161790555501549187985b610a75575b8787876040519182527f44ad6a9e36645c633fe0758019f6292d7a324289557759164269e07847d5a9fa60203393a36001815580f35b8051891015610abb57878080808686610a8e8f886113f7565b51165af1610a9a611427565b5015610aaa579784019784610a3a565b6040516312171d8360e31b81528490fd5b610a3f565b604051634ae76adf60e01b81528490fd5b634e487b7160e01b875260218352602487fd5b823461019c578060031936011261019c576001546040516001600160a01b039091168152602090f35b823461019c578060031936011261019c57602060405160b48152f35b5034610175578160031936011261017557610b637f00000000000000000000000000000000000000000000000000000000000000006115d1565b91610b8d7f00000000000000000000000000000000000000000000000000000000000000006116fd565b60405191602091602084019484861067ffffffffffffffff871117610c3657509284926020610bec8896610bde98604052858552604051988998600f60f81b8a5260e0858b015260e08a019061125a565b9088820360408a015261125a565b924660608801523060808801528460a088015286840360c088015251928381520193925b828110610c1f57505050500390f35b835185528695509381019392810192600101610c10565b634e487b7160e01b835260419052602482fd5b823461019c578060031936011261019c576020604051620151808152f35b5034610175578160031936011261017557600254906001600160a01b03903382841603610cd657506001600160601b0360a01b8092166002556001549133908316176001553391167f8be0079c531659141344cd1fd0a4f28419497f9722a3daafe3b4186f6b6457e08380a380f35b6024906040519063118cdaa760e01b82523390820152fd5b503461017557602080600319360112610e5a57813590610d0c611457565b81845260096020526040842091600683019182549260ff84166005811015610e4757600203610e36576005850154620151808101809111610e23574210610e12578686600198979896610d616001820161132d565b600382015460ff199098168317909455015585855b610d83575b866001815580f35b8151811015610e0d576001600160a01b03878080808985610da4888a6113f7565b51165af1610db0611427565b5015610dfc57818798999291610dc78993866113f7565b5116867fd3e69353709a7dcaab28b44353b592c552cd797c95ffb523f924c0a16b4a2c2b876040518b8152a301909796610d76565b6040516312171d8360e31b81528990fd5b610d7b565b6040516302aee1fb60e21b81528690fd5b634e487b7160e01b885260118752602488fd5b60405163e4ba2b1160e01b81528690fd5b634e487b7160e01b885260218752602488fd5b8280fd5b823461019c578060031936011261019c57610e7761147a565b600280546001600160a01b031990811690915560018054918216905581906001600160a01b03167f8be0079c531659141344cd1fd0a4f28419497f9722a3daafe3b4186f6b6457e08280a380f35b503461017557602036600319011261017557610edf61123f565b610ee761147a565b6001600160a01b0390811691821561027f5750600554826001600160601b0360a01b821617600555167f2d025324f0a785e8c12d0a0d91a9caa49df4ef20ff87e0df7213a1d4f3157beb8380a380f35b503461017557602036600319011261017557803590610f5461147a565b6103e88211610f98575060407f528d9479e9f9889a87a3c30c7f7ba537e5e59c4c85a37733b16e57c62df6130291600654908060065582519182526020820152a180f35b6040516358d620b360e01b8152fd5b823461019c578060031936011261019c576007546040516001600160a01b039091168152602090f35b506020366003190112610175578035610fe7611457565b8083526009602052604083206006810160ff815416600581101561113b57600180910361112a57600392600381015434036111195760018101918254600283019586548210156111085790889392918a5b8281106110c6575050505061104d33846113b7565b018054953487018097116110b3575085905554915482146110a2575b5060405192835260208301527ff64a5b6bdc9b7260c6ec2def8047534efdcdc689118b6a3f3e6bd7c40395501e60403393a36001815580f35b805460ff1916600217905538611069565b634e487b7160e01b885260119052602487fd5b9091929394506110d68187611389565b905490831b1c6001600160a01b031633146110f8578301908994939291611038565b604051621d934160e11b81528a90fd5b60405163bc42480360e01b81528990fd5b60405163162908e360e11b81528690fd5b60405163e4ba2b1160e01b81528590fd5b634e487b7160e01b865260218552602486fd5b823461019c578060031936011261019c576020600654604051908152f35b823461019c578060031936011261019c576005546040516001600160a01b039091168152602090f35b823461019c578060031936011261019c5760206040517ffd82c65ef44d047431783b54c7e66891afcf0da94e453dfcec91df5762287c7e8152f35b50346101755760209081600319360112610e5a573582526009815260016111fc6001604085200161132d565b926040519280840190808552855180925280604086019601925b8281106112235785870386f35b83516001600160a01b0316875295810195928101928401611216565b600435906001600160a01b038216820361125557565b600080fd5b919082519283825260005b848110611286575050826000602080949584010152601f8019910116010190565b602081830181015184830182015201611265565b9060058210156112a75752565b634e487b7160e01b600052602160045260246000fd5b60e0810190811067ffffffffffffffff8211176112d957604052565b634e487b7160e01b600052604160045260246000fd5b6040810190811067ffffffffffffffff8211176112d957604052565b90601f8019910116810190811067ffffffffffffffff8211176112d957604052565b90604051918281549182825260209260208301916000526020600020936000905b828210611366575050506113649250038361130b565b565b85546001600160a01b03168452600195860195889550938101939091019061134e565b80548210156113a15760005260206000200190600090565b634e487b7160e01b600052603260045260246000fd5b8054680100000000000000008110156112d9576113d991600182018155611389565b60018060a09493941b038084549260031b9316831b921b1916179055565b80518210156113a15760209160051b010190565b67ffffffffffffffff81116112d957601f01601f191660200190565b3d15611452573d906114388261140b565b91611446604051938461130b565b82523d6000602084013e565b606090565b600260005414611468576002600055565b604051633ee5aeb560e01b8152600490fd5b6001546001600160a01b0316330361148e57565b60405163118cdaa760e01b8152336004820152602490fd5b307f00000000000000000000000000000000000000000000000000000000000000006001600160a01b031614806115a8575b15611501577f000000000000000000000000000000000000000000000000000000000000000090565b60405160208101907f8b73c3c69bb8fe3d512ecc4cf759cc79239f7b179b0ffacaa9a75d522b39400f82527f000000000000000000000000000000000000000000000000000000000000000060408201527f000000000000000000000000000000000000000000000000000000000000000060608201524660808201523060a082015260a0815260c0810181811067ffffffffffffffff8211176112d95760405251902090565b507f000000000000000000000000000000000000000000000000000000000000000046146114d8565b60ff811461160f5760ff811690601f82116115fd57604051916115f3836112ef565b8252602082015290565b604051632cd44ac360e21b8152600490fd5b5060405160006003549060018260011c90600184169384156116f3575b60209485841081146116df57838752869493929181156116bf5750600114611660575b505061165d9250038261130b565b90565b9093915060036000527fc2575a0e9e593c00f959f8c92f12db2869c3395a3b0502d05e2516446f71f85b936000915b8183106116a757505061165d9350820101388061164f565b8554878401850152948501948694509183019161168f565b91505061165d94925060ff191682840152151560051b820101388061164f565b634e487b7160e01b85526022600452602485fd5b91607f169161162c565b60ff811461171f5760ff811690601f82116115fd57604051916115f3836112ef565b5060405160006004549060018260011c90600184169384156117cb575b60209485841081146116df57838752869493929181156116bf575060011461176c57505061165d9250038261130b565b9093915060046000527f8a35acfbc15ff81a39ae7d344fd709f28e8600b4aa8c65c6b64bfe7fe36bd19b936000915b8183106117b357505061165d9350820101388061164f565b8554878401850152948501948694509183019161179b565b91607f169161173c565b8151919060418303611806576117ff92506020820151906060604084015193015160001a90611880565b9192909190565b505060009160029190565b60048110156112a75780611823575050565b6001810361183d5760405163f645eedf60e01b8152600490fd5b6002810361185e5760405163fce698f760e01b815260048101839052602490fd5b6003146118685750565b602490604051906335e2f38360e21b82526004820152fd5b91907f7fffffffffffffffffffffffffffffff5d576e7357a4501ddfe92f46681b20a0841161190457926020929160ff608095604051948552168484015260408301526060820152600092839182805260015afa156118f85780516001600160a01b038116156118ef57918190565b50809160019190565b604051903d90823e3d90fd5b5050506000916003919056fea2646970667358221220518d4f29713eb98fa1c0cf913df1a8f2d24be7a171c9b99b8259d69101e8765b64736f6c63430008190033",
  "linkReferences": {},
  "deployedLinkReferences": {}
}