{
  "_format": "hh-sol-artifact-1",
  "contractName": "LudoVault",
  "sourceName": "contracts/LudoVault.sol",
  "abi": [
    {
      "inputs": [
        {
          "internalType": "address",
          "name": "_signer",
          "type": "address"
        },
        {
          "internalType": "address",
          "name": "_treasury",
          "type": "address"
        },
        {
          "internalType": "uint256",
          "name": "_feeBps",
          "type": "uint256"
        }
      ],
      "stateMutability": "nonpayable",
      "type": "constructor"
    },
    {
      "inputs": [],
      "name": "DeadlineExpired",
      "type": "error"
    },
    {
      "inputs": [],
      "name": "ECDSAInvalidSignature",
      "type": "error"
    },
    {
      "inputs": [
        {
          "internalType": "uint256",
          "name": "length",
          "type": "uint256"
        }
      ],
      "name": "ECDSAInvalidSignatureLength",
      "type": "error"
    },
    {
      "inputs": [
        {
          "internalType": "bytes32",
          "name": "s",
          "type": "bytes32"
        }
      ],
      "name": "ECDSAInvalidSignatureS",
      "type": "error"
    },
    {
      "inputs": [],
      "name": "EmergencyDelayNotPassed",
      "type": "error"
    },
    {
      "inputs": [],
      "name": "InvalidAddress",
      "type": "error"
    },
    {
      "inputs": [],
      "name": "InvalidAmount",
      "type": "error"
    },
    {
      "inputs": [],
      "name": "InvalidFee",
      "type": "error"
    },
    {
      "inputs": [],
      "name": "InvalidRoomStatus",
      "type": "error"
    },
    {
      "inputs": [],
      "name": "InvalidShortString",
      "type": "error"
    },
    {
      "inputs": [],
      "name": "InvalidSignature",
      "type": "error"
    },
    {
      "inputs": [],
      "name": "NonceAlreadyUsed",
      "type": "error"
    },
    {
      "inputs": [],
      "name": "NotRoomParticipant",
      "type": "error"
    },
    {
      "inputs": [
        {
          "internalType": "address",
          "name": "owner",
          "type": "address"
        }
      ],
      "name": "OwnableInvalidOwner",
      "type": "error"
    },
    {
      "inputs": [
        {
          "internalType": "address",
          "name": "account",
          "type": "address"
        }
      ],
      "name": "OwnableUnauthorizedAccount",
      "type": "error"
    },
    {
      "inputs": [],
      "name": "ReentrancyGuardReentrantCall",
      "type": "error"
    },
    {
      "inputs": [],
      "name": "RoomNotFound",
      "type": "error"
    },
    {
      "inputs": [
        {
          "internalType": "string",
          "name": "str",
          "type": "string"
        }
      ],
      "name": "StringTooLong",
      "type": "error"
    },
    {
      "inputs": [],
      "name": "TransferFailed",
      "type": "error"
    },
    {
      "anonymous": false,
      "inputs": [],
      "name": "EIP712DomainChanged",
      "type": "event"
    },
    {
      "anonymous": false,
      "inputs": [
        {
          "indexed": true,
          "internalType": "bytes32",
          "name": "roomId",
          "type": "bytes32"
        },
        {
          "indexed": true,
          "internalType": "address",
          "name": "player",
          "type": "address"
        },
        {
          "indexed": false,
          "internalType": "uint256",
          "name": "amount",
          "type": "uint256"
        }
      ],
      "name": "EmergencyWithdraw",
      "type": "event"
    },
    {
      "anonymous": false,
      "inputs": [
        {
          "indexed": false,
          "internalType": "uint256",
          "name": "oldFee",
          "type": "uint256"
        },
        {
          "indexed": false,
          "internalType": "uint256",
          "name": "newFee",
          "type": "uint256"
        }
      ],
      "name": "FeeUpdated",
      "type": "event"
    },
    {
      "anonymous": false,
      "inputs": [
        {
          "indexed": true,
          "internalType": "bytes32",
          "name": "roomId",
          "type": "bytes32"
        },
        {
          "indexed": true,
          "internalType": "address",
          "name": "winner",
          "type": "address"
        },
        {
          "indexed": false,
          "internalType": "uint256",
          "name": "payout",
          "type": "uint256"
        },
        {
          "indexed": false,
          "internalType": "uint256",
          "name": "fee",
          "type": "uint256"
        }
      ],
      "name": "GameFinished",
      "type": "event"
    },
    {
      "anonymous": false,
      "inputs": [
        {
          "indexed": true,
          "internalType": "address",
          "name": "previousOwner",
          "type": "address"
        },
        {
          "indexed": true,
          "internalType": "address",
          "name": "newOwner",
          "type": "address"
        }
      ],
      "name": "OwnershipTransferStarted",
      "type": "event"
    },
    {
      "anonymous": false,
      "inputs": [
        {
          "indexed": true,
          "internalType": "address",
          "name": "previousOwner",
          "type": "address"
        },
        {
          "indexed": true,
          "internalType": "address",
          "name": "newOwner",
          "type": "address"
        }
      ],
      "name": "OwnershipTransferred",
      "type": "event"
    },
    {
      "anonymous": false,
      "inputs": [
        {
          "indexed": true,
          "internalType": "bytes32",
          "name": "roomId",
          "type": "bytes32"
        },
        {
          "indexed": true,
          "internalType": "address",
          "name": "creator",
          "type": "address"
        },
        {
          "indexed": false,
          "internalType": "uint256",
          "name": "refundAmount",
          "type": "uint256"
        }
      ],
      "name": "RoomCancelled",
      "type": "event"
    },
    {
      "anonymous": false,
      "inputs": [
        {
          "indexed": true,
          "internalType": "bytes32",
          "name": "roomId",
          "type": "bytes32"
        },
        {
          "indexed": true,
          "internalType": "address",
          "name": "creator",
          "type": "address"
        },
        {
          "indexed": false,
          "internalType": "uint256",
          "name": "entryAmount",
          "type": "uint256"
        }
      ],
      "name": "RoomCreated",
      "type": "event"
    },
    {
      "anonymous": false,
      "inputs": [
        {
          "indexed": true,
          "internalType": "bytes32",
          "name": "roomId",
          "type": "bytes32"
        },
        {
          "indexed": true,
          "internalType": "address",
          "name": "opponent",
          "type": "address"
        },
        {
          "indexed": false,
          "internalType": "uint256",
          "name": "totalPot",
          "type": "uint256"
        }
      ],
      "name": "RoomJoined",
      "type": "event"
    },
    {
      "anonymous": false,
      "inputs": [
        {
          "indexed": true,
          "internalType": "address",
          "name": "oldSigner",
          "type": "address"
        },
        {
          "indexed": true,
          "internalType": "address",
          "name": "newSigner",
          "type": "address"
        }
      ],
      "name": "SignerUpdated",
      "type": "event"
    },
    {
      "anonymous": false,
      "inputs": [
        {
          "indexed": true,
          "internalType": "address",
          "name": "oldTreasury",
          "type": "address"
        },
        {
          "indexed": true,
          "internalType": "address",
          "name": "newTreasury",
          "type": "address"
        }
      ],
      "name": "TreasuryUpdated",
      "type": "event"
    },
    {
      "inputs": [],
      "name": "BPS_DENOMINATOR",
      "outputs": [
        {
          "internalType": "uint256",
          "name": "",
          "type": "uint256"
        }
      ],
      "stateMutability": "view",
      "type": "function"
    },
    {
      "inputs": [],
      "name": "EMERGENCY_DELAY",
      "outputs": [
        {
          "internalType": "uint256",
          "name": "",
          "type": "uint256"
        }
      ],
      "stateMutability": "view",
      "type": "function"
    },
    {
      "inputs": [],
      "name": "MAX_FEE_BPS",
      "outputs": [
        {
          "internalType": "uint256",
          "name": "",
          "type": "uint256"
        }
      ],
      "stateMutability": "view",
      "type": "function"
    },
    {
      "inputs": [],
      "name": "PAYOUT_TYPEHASH",
      "outputs": [
        {
          "internalType": "bytes32",
          "name": "",
          "type": "bytes32"
        }
      ],
      "stateMutability": "view",
      "type": "function"
    },
    {
      "inputs": [],
      "name": "ROOM_TIMEOUT",
      "outputs": [
        {
          "internalType": "uint256",
          "name": "",
          "type": "uint256"
        }
      ],
      "stateMutability": "view",
      "type": "function"
    },
    {
      "inputs": [],
      "name": "acceptOwnership",
      "outputs": [],
      "stateMutability": "nonpayable",
      "type": "function"
    },
    {
      "inputs": [
        {
          "internalType": "bytes32",
          "name": "roomId",
          "type": "bytes32"
        }
      ],
      "name": "canEmergencyWithdraw",
      "outputs": [
        {
          "internalType": "bool",
          "name": "",
          "type": "bool"
        }
      ],
      "stateMutability": "view",
      "type": "function"
    },
    {
      "inputs": [
        {
          "internalType": "bytes32",
          "name": "roomId",
          "type": "bytes32"
        }
      ],
      "name": "cancelRoom",
      "outputs": [],
      "stateMutability": "nonpayable",
      "type": "function"
    },
    {
      "inputs": [
        {
          "internalType": "bytes32",
          "name": "roomId",
          "type": "bytes32"
        },
        {
          "internalType": "address",
          "name": "winner",
          "type": "address"
        },
        {
          "internalType": "uint256",
          "name": "amount",
          "type": "uint256"
        },
        {
          "internalType": "uint256",
          "name": "nonce",
          "type": "uint256"
        },
        {
          "internalType": "uint256",
          "name": "deadline",
          "type": "uint256"
        },
        {
          "internalType": "bytes",
          "name": "signature",
          "type": "bytes"
        }
      ],
      "name": "claimPayout",
      "outputs": [],
      "stateMutability": "nonpayable",
      "type": "function"
    },
    {
      "inputs": [
        {
          "internalType": "bytes32",
          "name": "roomId",
          "type": "bytes32"
        },
        {
          "internalType": "uint256",
          "name": "entryAmount",
          "type": "uint256"
        }
      ],
      "name": "createRoom",
      "outputs": [],
      "stateMutability": "payable",
      "type": "function"
    },
    {
      "inputs": [],
      "name": "domainSeparator",
      "outputs": [
        {
          "internalType": "bytes32",
          "name": "",
          "type": "bytes32"
        }
      ],
      "stateMutability": "view",
      "type": "function"
    },
    {
      "inputs": [],
      "name": "eip712Domain",
      "outputs": [
        {
          "internalType": "bytes1",
          "name": "fields",
          "type": "bytes1"
        },
        {
          "internalType": "string",
          "name": "name",
          "type": "string"
        },
        {
          "internalType": "string",
          "name": "version",
          "type": "string"
        },
        {
          "internalType": "uint256",
          "name": "chainId",
          "type": "uint256"
        },
        {
          "internalType": "address",
          "name": "verifyingContract",
          "type": "address"
        },
        {
          "internalType": "bytes32",
          "name": "salt",
          "type": "bytes32"
        },
        {
          "internalType": "uint256[]",
          "name": "extensions",
          "type": "uint256[]"
        }
      ],
      "stateMutability": "view",
      "type": "function"
    },
    {
      "inputs": [
        {
          "internalType": "bytes32",
          "name": "roomId",
          "type": "bytes32"
        }
      ],
      "name": "emergencyWithdraw",
      "outputs": [],
      "stateMutability": "nonpayable",
      "type": "function"
    },
    {
      "inputs": [],
      "name": "feeBps",
      "outputs": [
        {
          "internalType": "uint256",
          "name": "",
          "type": "uint256"
        }
      ],
      "stateMutability": "view",
      "type": "function"
    },
    {
      "inputs": [
        {
          "internalType": "bytes32",
          "name": "roomId",
          "type": "bytes32"
        }
      ],
      "name": "getRoom",
      "outputs": [
        {
          "components": [
            {
              "internalType": "address",
              "name": "creator",
              "type": "address"
            },
            {
              "internalType": "address",
              "name": "opponent",
              "type": "address"
            },
            {
              "internalType": "uint256",
              "name": "entryAmount",
              "type": "uint256"
            },
            {
              "internalType": "uint256",
              "name": "pot",
              "type": "uint256"
            },
            {
              "internalType": "uint256",
              "name": "createdAt",
              "type": "uint256"
            },
            {
              "internalType": "enum LudoVault.RoomStatus",
              "name": "status",
              "type": "uint8"
            }
          ],
          "internalType": "struct LudoVault.Room",
          "name": "",
          "type": "tuple"
        }
      ],
      "stateMutability": "view",
      "type": "function"
    },
    {
      "inputs": [
        {
          "internalType": "bytes32",
          "name": "roomId",
          "type": "bytes32"
        }
      ],
      "name": "joinRoom",
      "outputs": [],
      "stateMutability": "payable",
      "type": "function"
    },
    {
      "inputs": [],
      "name": "owner",
      "outputs": [
        {
          "internalType": "address",
          "name": "",
          "type": "address"
        }
      ],
      "stateMutability": "view",
      "type": "function"
    },
    {
      "inputs": [],
      "name": "pendingOwner",
      "outputs": [
        {
          "internalType": "address",
          "name": "",
          "type": "address"
        }
      ],
      "stateMutability": "view",
      "type": "function"
    },
    {
      "inputs": [],
      "name": "renounceOwnership",
      "outputs": [],
      "stateMutability": "nonpayable",
      "type": "function"
    },
    {
      "inputs": [
        {
          "internalType": "bytes32",
          "name": "",
          "type": "bytes32"
        }
      ],
      "name": "rooms",
      "outputs": [
        {
          "internalType": "address",
          "name": "creator",
          "type": "address"
        },
        {
          "internalType": "address",
          "name": "opponent",
          "type": "address"
        },
        {
          "internalType": "uint256",
          "name": "entryAmount",
          "type": "uint256"
        },
        {
          "internalType": "uint256",
          "name": "pot",
          "type": "uint256"
        },
        {
          "internalType": "uint256",
          "name": "createdAt",
          "type": "uint256"
        },
        {
          "internalType": "enum LudoVault.RoomStatus",
          "name": "status",
          "type": "uint8"
        }
      ],
      "stateMutability": "view",
      "type": "function"
    },
    {
      "inputs": [
        {
          "internalType": "uint256",
          "name": "newFeeBps",
          "type": "uint256"
        }
      ],
      "name": "setFee",
      "outputs": [],
      "stateMutability": "nonpayable",
      "type": "function"
    },
    {
      "inputs": [
        {
          "internalType": "address",
          "name": "newSigner",
          "type": "address"
        }
      ],
      "name": "setSigner",
      "outputs": [],
      "stateMutability": "nonpayable",
      "type": "function"
    },
    {
      "inputs": [
        {
          "internalType": "address",
          "name": "newTreasury",
          "type": "address"
        }
      ],
      "name": "setTreasury",
      "outputs": [],
      "stateMutability": "nonpayable",
      "type": "function"
    },
    {
      "inputs": [],
      "name": "signer",
      "outputs": [
        {
          "internalType": "address",
          "name": "",
          "type": "address"
        }
      ],
      "stateMutability": "view",
      "type": "function"
    },
    {
      "inputs": [
        {
          "internalType": "address",
          "name": "newOwner",
          "type": "address"
        }
      ],
      "name": "transferOwnership",
      "outputs": [],
      "stateMutability": "nonpayable",
      "type": "function"
    },
    {
      "inputs": [],
      "name": "treasury",
      "outputs": [
        {
          "internalType": "address",
          "name": "",
          "type": "address"
        }
      ],
      "stateMutability": "view",
      "type": "function"
    },
    {
      "inputs": [
        {
          "internalType": "bytes32",
          "name": "",
          "type": "bytes32"
        }
      ],
      "name": "usedNonces",
      "outputs": [
        {
          "internalType": "bool",
          "name": "",
          "type": "bool"
        }
      ],
      "stateMutability": "view",
      "type": "function"
    }
  ],
  "bytecode": "0x6101603461026457601f611d6938819003918201601f1916830192916001600160401b0391828511848610176102695781606092859260409788528339810103126102645761004d8261029a565b928061005b6020850161029a565b93015181519261006a8461027f565b60098452602084019468131d591bd5985d5b1d60ba1b865283519061008e8261027f565b600182526020820190603160f81b825260009860018a55331561024c5760018060a01b03199384600254166002556001549360018060a01b039433878216176001558c7f8be0079c531659141344cd1fd0a4f28419497f9722a3daafe3b4186f6b6457e0873393169180a36101028a6102ae565b9a6101209b8c5261011283610474565b9a6101409b8c52519020918260e0525190206101009b818d524660a05289519160208301937f8b73c3c69bb8fe3d512ecc4cf759cc79239f7b179b0ffacaa9a75d522b39400f85528b84015260608301524660808301523060a083015260a0825260c08201978289109089111761023857508689525190206080523060c0528216938415610229575016918215610218576103e88411610207578160055416176005556007541617600755600655519161173d938461062c8539608051846112e7015260a051846113a2015260c051846112b1015260e051846113360152518361135c01525182610a6201525181610a8c0152f35b84516358d620b360e01b8152600490fd5b845163e6c4247b60e01b8152600490fd5b63e6c4247b60e01b8152600490fd5b634e487b7160e01b81526041600452602490fd5b8651631e4fbdf760e01b8152600481018b9052602490fd5b600080fd5b634e487b7160e01b600052604160045260246000fd5b604081019081106001600160401b0382111761026957604052565b51906001600160a01b038216820361026457565b80516020919082811015610348575090601f8251116102e957808251920151908083106102da57501790565b82600019910360031b1b161790565b90604051809263305a27a960e01b82528060048301528251908160248401526000935b82851061032f575050604492506000838284010152601f80199101168101030190fd5b848101820151868601604401529381019385935061030c565b6001600160401b038111610269576003928354926001938481811c9116801561046a575b8382101461045457601f811161041e575b5081601f84116001146103b957509282939183926000946103ae575b50501b9160001990841b1c191617905560ff90565b015192503880610399565b919083601f1981168760005284600020946000905b8883831061040457505050106103ec575b505050811b01905560ff90565b015160001983861b60f8161c191690553880806103df565b8587015188559096019594850194879350908101906103ce565b8560005284601f84600020920160051c820191601f860160051c015b82811061044857505061037d565b6000815501859061043a565b634e487b7160e01b600052602260045260246000fd5b90607f169061036c565b805160209190828110156104ff575090601f8251116104a057808251920151908083106102da57501790565b90604051809263305a27a960e01b82528060048301528251908160248401526000935b8285106104e6575050604492506000838284010152601f80199101168101030190fd5b84810182015186860160440152938101938593506104c3565b6001600160401b038111610269576004928354926001938481811c91168015610621575b8382101461060c57601f81116105d6575b5081601f84116001146105715750928293918392600094610566575b50501b916000199060031b1c191617905560ff90565b015192503880610550565b919083601f1981168760005284600020946000905b888383106105bc57505050106105a357505050811b01905560ff90565b015160001960f88460031b161c191690553880806103df565b858701518855909601959485019487935090810190610586565b8560005284601f84600020920160051c820191601f860160051c015b828110610600575050610534565b600081550185906105f2565b602286634e487b7160e01b6000525260246000fd5b90607f169061052356fe6080604081815260048036101561001557600080fd5b600092833560e01c9081630252373b14611099575080632204b9091461105e578063238ac9331461103557806324a9d853146110165780634b29b4c414610f0157806361d027b314610ed857806369fe0e2d14610e6a5780636c19e78314610df6578063715018a614610d8f57806375870d6514610c1057806379ba509714610b8857806382944e2d14610b6a57806384b0196e14610a4b578063893c974114610a2f5780638da5cb5b14610a0657806392776b4f14610914578063ad9a28661461081a578063c8f6e40d146104cb578063c9cf84501461036c578063d55be8c61461034f578063d7fbc2e4146102db578063e1a45218146102be578063e30c397814610295578063f0f4426014610214578063f2fde38b146101a3578063f698da251461017b5763feb617241461014c57600080fd5b34610177576020366003190112610177578160209360ff923581526008855220541690519015158152f35b8280fd5b50503461019f578160031936011261019f576020906101986112ae565b9051908152f35b5080fd5b8334610211576020366003190112610211576101bd611125565b6101c5611282565b600280546001600160a01b0319166001600160a01b039283169081179091556001549091167f38d16b8cac22d99fc7c124b9cd0de2d3fa1faef420bfe791d8c362d765e227008380a380f35b80fd5b50346101775760203660031901126101775761022e611125565b90610237611282565b6001600160a01b03918216928315610288575050600754826001600160601b0360a01b821617600755167f4ab5be82436d353e61ca18726e984e561f5c1cc7c6d38b29d2553c790434705a8380a380f35b5163e6c4247b60e01b8152fd5b50503461019f578160031936011261019f5760025490516001600160a01b039091168152602090f35b50503461019f578160031936011261019f57602090516127108152f35b509034610177576020366003190112610177578061034d9160c0948435815260096020522060018060a01b039384825416946001830154169260028301549060ff60056003860154948601549501541694815197885260208801528601526060850152608084015260a0830190611180565bf35b50503461019f578160031936011261019f57602090516103e88152f35b5090806003193601126101775781359161038461125f565b341580156104bf575b6104b157828452600960205260ff6005838620015416600581101561049e57610490578151906103bc826111a3565b3382526005602083019286845284810134815260608201348152608083019142835260a084019660018852898b526009602052888b209460018060a01b0380915116906001600160601b0360a01b91828854161787556001870192511690825416179055516002840155516003830155518382015501915190600582101561047d575060ff8019835416911617905551903482527f2cae16457f550ded88d7f4d25429ca3754d197f6e6acc9b0db3232de1be4aa7060203393a36001815580f35b634e487b7160e01b865260219052602485fd5b905163e4ba2b1160e01b8152fd5b634e487b7160e01b855260218252602485fd5b905163162908e360e11b8152fd5b5060243534141561038d565b5091903461019f5760c036600319011261019f57602480356001600160a01b03818116938635939092859003610816576044359167ffffffffffffffff9060843560643560a435848111610812573660238201121561081257808c013585811161080e573687828401011161080e5761054261125f565b8342116107fe578851956020968781018c8152858c8301528b825260608201918083108484111761079757828d52519020808f52600889528b8f205490949392919060ff166107f157508a8e8d815260098a522095600587019560ff87541660058110156107dc576002036107cc57875489168f14158f816107bb575b506107ab57918d918f938e948551948d8601967ffd82c65ef44d047431783b54c7e66891afcf0da94e453dfcec91df5762287c7e885286015260608501528d608085015260a084015260c083015260c0825260e082019082821090821117610797578f9084610681958f9560428f918f959761068a9b988a525190206106436112ae565b9089519161190160f01b835260028301526022820152209561067061066784611213565b985198896111f1565b8288520183870137840101526115cc565b90929192611608565b848060055416911603610787578a52600884526003878b2060ff199060018282541617905582541617905560065480860290868204148615171561077557612710900493848603958611610764575090886003819301558380610742575b5050808080868a5af16106f961122f565b50156107325783519283528201527fa0e7734c8654e287a45f16fde066023ac9ca1cd19e028986989d5c4d5f1f520e9190a36001815580f35b83516312171d8360e31b81528890fd5b828092918192600754165af161075661122f565b5015610732578638836106e8565b634e487b7160e01b8a5260118b5289fd5b634e487b7160e01b8a5260118b52848afd5b8751638baa579f60e01b81528c90fd5b508f8f60418c92634e487b7160e01b835252fd5b508f8c51634ae76adf60e01b8152fd5b90508960018a01541614158f6105bf565b508f8c5163e4ba2b1160e01b8152fd5b50508f8f60218c92634e487b7160e01b835252fd5b623f613760e71b81528f90fd5b8851631ab7da6b60e01b81528d90fd5b8b80fd5b8a80fd5b8580fd5b509134610211576020366003190112610211578060a0835161083b816111a3565b8281528260208201528285820152826060820152826080820152015282358152600960205281812082519261086f846111a3565b60018060a01b03908183541685528160018401541691602086019283526002840154908287019182526003850154936060880194855260ff60058a8801549760808b0198895201541660a089019760058210156109015760c08a61034d8b8b8b8b8b8b8b8b875281845199511689525116602088015251908601525160608501525160808401525160a0830190611180565b634e487b7160e01b815260218b52602490fd5b5090346101775760203660031901126101775781359061093261125f565b8184526009602052808420926005840180549460ff861660058110156109f3576001036109e35780546001600160a01b031633036109d357600301805460ff1990961683179091558590558480808087335af161098d61122f565b50156109c55750519182527f44ad6a9e36645c633fe0758019f6292d7a324289557759164269e07847d5a9fa60203393a36001815580f35b90516312171d8360e31b8152fd5b8351634ae76adf60e01b81528390fd5b835163e4ba2b1160e01b81528390fd5b634e487b7160e01b885260218452602488fd5b50503461019f578160031936011261019f5760015490516001600160a01b039091168152602090f35b50503461019f578160031936011261019f576020905160b48152f35b509034610177578260031936011261017757610a867f00000000000000000000000000000000000000000000000000000000000000006113c8565b92610ab07f00000000000000000000000000000000000000000000000000000000000000006114f4565b90825192602092602085019585871067ffffffffffffffff881117610b575750926020610b0d838896610b00998b9996528686528151998a99600f60f81b8b5260e0868c015260e08b0190611140565b91898303908a0152611140565b924660608801523060808801528460a088015286840360c088015251928381520193925b828110610b4057505050500390f35b835185528695509381019392810192600101610b31565b634e487b7160e01b845260419052602483fd5b50503461019f578160031936011261019f5760209051620151808152f35b509034610177578260031936011261017757600254916001600160a01b03913383851603610bf95750506001600160601b0360a01b8092166002556001549133908316176001553391167f8be0079c531659141344cd1fd0a4f28419497f9722a3daafe3b4186f6b6457e08380a380f35b60249250519063118cdaa760e01b82523390820152fd5b50903461017757602036600319011261017757813590610c2e61125f565b8184526009602052808420906005820180549460ff86166005811015610d7c57600203610d6e5783546001600160a01b0394908516923384141580610d5e575b610d4e5782820154620151808101809111610d3b574210610d2b57816003918460028c950154986001840154169a60ff191617905501558680808087865af1610cb561122f565b5087808080888b5af190610cc761122f565b5015908115610d22575b50610d1457509181602093858594518481527fd3e69353709a7dcaab28b44353b592c552cd797c95ffb523f924c0a16b4a2c2b968791a351908152a36001815580f35b82516312171d8360e31b8152fd5b90501538610cd1565b84516302aee1fb60e21b81528390fd5b634e487b7160e01b8a526011845260248afd5b8451634ae76adf60e01b81528390fd5b5085600183015416331415610c6e565b825163e4ba2b1160e01b8152fd5b634e487b7160e01b885260218252602488fd5b8334610211578060031936011261021157610da8611282565b600280546001600160a01b031990811690915560018054918216905581906001600160a01b03167f8be0079c531659141344cd1fd0a4f28419497f9722a3daafe3b4186f6b6457e08280a380f35b503461017757602036600319011261017757610e10611125565b90610e19611282565b6001600160a01b03918216928315610288575050600554826001600160601b0360a01b821617600555167f2d025324f0a785e8c12d0a0d91a9caa49df4ef20ff87e0df7213a1d4f3157beb8380a380f35b503461017757602036600319011261017757803590610e87611282565b6103e88211610eca5750907f528d9479e9f9889a87a3c30c7f7ba537e5e59c4c85a37733b16e57c62df6130291600654908060065582519182526020820152a180f35b82516358d620b360e01b8152fd5b50503461019f578160031936011261019f5760075490516001600160a01b039091168152602090f35b5090602036600319011261017757813590610f1a61125f565b8184526009602052808420600581019081549060ff8216600581101561100357600103610ff35780546001600160a01b03163314610fe35760028101543403610fd3576001810180546001600160a01b03191633179055600301805434810196908710610fc0575090856002925560ff1916179055519182527f7fb92d9ef81fb1a14948efd516a9cd1343209038f191b7901ad2625166085a7c60203393a36001815580f35b634e487b7160e01b885260119052602487fd5b835163162908e360e11b81528690fd5b8351634ae76adf60e01b81528690fd5b835163e4ba2b1160e01b81528690fd5b634e487b7160e01b885260218752602488fd5b50503461019f578160031936011261019f576020906006549051908152f35b50503461019f578160031936011261019f5760055490516001600160a01b039091168152602090f35b50503461019f578160031936011261019f57602090517ffd82c65ef44d047431783b54c7e66891afcf0da94e453dfcec91df5762287c7e8152f35b905083833461019f57602036600319011261019f5783358252600960205281209060ff60058301541660058110156111125760021491826110df575b6020848415158152f35b840154620151808101925082106110ff57506020925042101583806110d5565b634e487b7160e01b815260118452602490fd5b634e487b7160e01b825260218552602482fd5b600435906001600160a01b038216820361113b57565b600080fd5b919082519283825260005b84811061116c575050826000602080949584010152601f8019910116010190565b60208183018101518483018201520161114b565b90600582101561118d5752565b634e487b7160e01b600052602160045260246000fd5b60c0810190811067ffffffffffffffff8211176111bf57604052565b634e487b7160e01b600052604160045260246000fd5b6040810190811067ffffffffffffffff8211176111bf57604052565b90601f8019910116810190811067ffffffffffffffff8211176111bf57604052565b67ffffffffffffffff81116111bf57601f01601f191660200190565b3d1561125a573d9061124082611213565b9161124e60405193846111f1565b82523d6000602084013e565b606090565b600260005414611270576002600055565b604051633ee5aeb560e01b8152600490fd5b6001546001600160a01b0316330361129657565b60405163118cdaa760e01b8152336004820152602490fd5b307f00000000000000000000000000000000000000000000000000000000000000006001600160a01b0316148061139f575b15611309577f000000000000000000000000000000000000000000000000000000000000000090565b60405160208101907f8b73c3c69bb8fe3d512ecc4cf759cc79239f7b179b0ffacaa9a75d522b39400f82527f000000000000000000000000000000000000000000000000000000000000000060408201527f000000000000000000000000000000000000000000000000000000000000000060608201524660808201523060a082015260a08152611399816111a3565b51902090565b507f000000000000000000000000000000000000000000000000000000000000000046146112e0565b60ff81146114065760ff811690601f82116113f457604051916113ea836111d5565b8252602082015290565b604051632cd44ac360e21b8152600490fd5b5060405160006003549060018260011c90600184169384156114ea575b60209485841081146114d657838752869493929181156114b65750600114611457575b5050611454925003826111f1565b90565b9093915060036000527fc2575a0e9e593c00f959f8c92f12db2869c3395a3b0502d05e2516446f71f85b936000915b81831061149e57505061145493508201013880611446565b85548784018501529485019486945091830191611486565b91505061145494925060ff191682840152151560051b8201013880611446565b634e487b7160e01b85526022600452602485fd5b91607f1691611423565b60ff81146115165760ff811690601f82116113f457604051916113ea836111d5565b5060405160006004549060018260011c90600184169384156115c2575b60209485841081146114d657838752869493929181156114b65750600114611563575050611454925003826111f1565b9093915060046000527f8a35acfbc15ff81a39ae7d344fd709f28e8600b4aa8c65c6b64bfe7fe36bd19b936000915b8183106115aa57505061145493508201013880611446565b85548784018501529485019486945091830191611592565b91607f1691611533565b81519190604183036115fd576115f692506020820151906060604084015193015160001a90611677565b9192909190565b505060009160029190565b600481101561118d578061161a575050565b600181036116345760405163f645eedf60e01b8152600490fd5b600281036116555760405163fce698f760e01b815260048101839052602490fd5b60031461165f5750565b602490604051906335e2f38360e21b82526004820152fd5b91907f7fffffffffffffffffffffffffffffff5d576e7357a4501ddfe92f46681b20a084116116fb57926020929160ff608095604051948552168484015260408301526060820152600092839182805260015afa156116ef5780516001600160a01b038116156116e657918190565b50809160019190565b604051903d90823e3d90fd5b5050506000916003919056fea26469706673582212207b0245601e127a48b75badea0c8faef3c90918a9224cdaa410d139a958e62f8f64736f6c63430008190033",
  "linkReferences": {},
  "deployedLinkReferences": {}
}