{
  "_format": "hh-sol-artifact-1",
  "contractName": "LudoVault",
  "sourceName": "contracts/LudoVault.sol",
  "abi": [
    {
      "inputs": [
        {
          "internalType": "address",
          "name": "_token",
          "type": "address"
        },
        {
          "internalType": "address",
          "name": "_signer",
          "type": "address"
        },
        {
          "internalType": "address",
          "name": "_treasury",
          "type": "address"
        },
        {
          "internalType": "uint256",
          "name": "_feeBps",
          "type": "uint256"
        }
      ],
      "stateMutability": "nonpayable",
      "type": "constructor"
    },
    {
      "inputs": [],
      "name": "DeadlineExpired",
      "type": "error"
    },
    {
      "inputs": [],
      "name": "ECDSAInvalidSignature",
      "type": "error"
    },
    {
      "inputs": [
        {
          "internalType": "uint256",
          "name": "length",
          "type": "uint256"
        }
      ],
      "name": "ECDSAInvalidSignatureLength",
      "type": "error"
    },
    {
      "inputs": [
        {
          "internalType": "bytes32",
          "name": "s",
          "type": "bytes32"
        }
      ],
      "name": "ECDSAInvalidSignatureS",
      "type": "error"
    },
    {
      "inputs": [],
      "name": "EmergencyDelayNotPassed",
      "type": "error"
    },
    {
      "inputs": [],
      "name": "InvalidAddress",
      "type": "error"
    },
    {
      "inputs": [],
      "name": "InvalidAmount",
      "type": "error"
    },
    {
      "inputs": [],
      "name": "InvalidFee",
      "type": "error"
    },
    {
      "inputs": [],
      "name": "InvalidRoomStatus",
      "type": "error"
    },
    {
      "inputs": [],
      "name": "InvalidShortString",
      "type": "error"
    },
    {
      "inputs": [],
      "name": "InvalidSignature",
      "type": "error"
    },
    {
      "inputs": [],
      "name": "NonceAlreadyUsed",
      "type": "error"
    },
    {
      "inputs": [],
      "name": "NotRoomParticipant",
      "type": "error"
    },
    {
      "inputs": [
        {
          "internalType": "address",
          "name": "owner",
          "type": "address"
        }
      ],
      "name": "OwnableInvalidOwner",
      "type": "error"
    },
    {
      "inputs": [
        {
          "internalType": "address",
          "name": "account",
          "type": "address"
        }
      ],
      "name": "OwnableUnauthorizedAccount",
      "type": "error"
    },
    {
      "inputs": [],
      "name": "ReentrancyGuardReentrantCall",
      "type": "error"
    },
    {
      "inputs": [],
      "name": "RoomNotFound",
      "type": "error"
    },
    {
      "inputs": [
        {
          "internalType": "address",
          "name": "token",
          "type": "address"
        }
      ],
      "name": "SafeERC20FailedOperation",
      "type": "error"
    },
    {
      "inputs": [
        {
          "internalType": "string",
          "name": "str",
          "type": "string"
        }
      ],
      "name": "StringTooLong",
      "type": "error"
    },
    {
      "inputs": [],
      "name": "TransferFailed",
      "type": "error"
    },
    {
      "anonymous": false,
      "inputs": [],
      "name": "EIP712DomainChanged",
      "type": "event"
    },
    {
      "anonymous": false,
      "inputs": [
        {
          "indexed": true,
          "internalType": "bytes32",
          "name": "roomId",
          "type": "bytes32"
        },
        {
          "indexed": true,
          "internalType": "address",
          "name": "player",
          "type": "address"
        },
        {
          "indexed": false,
          "internalType": "uint256",
          "name": "amount",
          "type": "uint256"
        }
      ],
      "name": "EmergencyWithdraw",
      "type": "event"
    },
    {
      "anonymous": false,
      "inputs": [
        {
          "indexed": false,
          "internalType": "uint256",
          "name": "oldFee",
          "type": "uint256"
        },
        {
          "indexed": false,
          "internalType": "uint256",
          "name": "newFee",
          "type": "uint256"
        }
      ],
      "name": "FeeUpdated",
      "type": "event"
    },
    {
      "anonymous": false,
      "inputs": [
        {
          "indexed": true,
          "internalType": "bytes32",
          "name": "roomId",
          "type": "bytes32"
        },
        {
          "indexed": true,
          "internalType": "address",
          "name": "winner",
          "type": "address"
        },
        {
          "indexed": false,
          "internalType": "uint256",
          "name": "payout",
          "type": "uint256"
        },
        {
          "indexed": false,
          "internalType": "uint256",
          "name": "fee",
          "type": "uint256"
        }
      ],
      "name": "GameFinished",
      "type": "event"
    },
    {
      "anonymous": false,
      "inputs": [
        {
          "indexed": true,
          "internalType": "address",
          "name": "previousOwner",
          "type": "address"
        },
        {
          "indexed": true,
          "internalType": "address",
          "name": "newOwner",
          "type": "address"
        }
      ],
      "name": "OwnershipTransferStarted",
      "type": "event"
    },
    {
      "anonymous": false,
      "inputs": [
        {
          "indexed": true,
          "internalType": "address",
          "name": "previousOwner",
          "type": "address"
        },
        {
          "indexed": true,
          "internalType": "address",
          "name": "newOwner",
          "type": "address"
        }
      ],
      "name": "OwnershipTransferred",
      "type": "event"
    },
    {
      "anonymous": false,
      "inputs": [
        {
          "indexed": true,
          "internalType": "bytes32",
          "name": "roomId",
          "type": "bytes32"
        },
        {
          "indexed": true,
          "internalType": "address",
          "name": "creator",
          "type": "address"
        },
        {
          "indexed": false,
          "internalType": "uint256",
          "name": "refundAmount",
          "type": "uint256"
        }
      ],
      "name": "RoomCancelled",
      "type": "event"
    },
    {
      "anonymous": false,
      "inputs": [
        {
          "indexed": true,
          "internalType": "bytes32",
          "name": "roomId",
          "type": "bytes32"
        },
        {
          "indexed": true,
          "internalType": "address",
          "name": "creator",
          "type": "address"
        },
        {
          "indexed": false,
          "internalType": "uint256",
          "name": "entryAmount",
          "type": "uint256"
        }
      ],
      "name": "RoomCreated",
      "type": "event"
    },
    {
      "anonymous": false,
      "inputs": [
        {
          "indexed": true,
          "internalType": "bytes32",
          "name": "roomId",
          "type": "bytes32"
        },
        {
          "indexed": true,
          "internalType": "address",
          "name": "opponent",
          "type": "address"
        },
        {
          "indexed": false,
          "internalType": "uint256",
          "name": "totalPot",
          "type": "uint256"
        }
      ],
      "name": "RoomJoined",
      "type": "event"
    },
    {
      "anonymous": false,
      "inputs": [
        {
          "indexed": true,
          "internalType": "address",
          "name": "oldSigner",
          "type": "address"
        },
        {
          "indexed": true,
          "internalType": "address",
          "name": "newSigner",
          "type": "address"
        }
      ],
      "name": "SignerUpdated",
      "type": "event"
    },
    {
      "anonymous": false,
      "inputs": [
        {
          "indexed": true,
          "internalType": "address",
          "name": "oldTreasury",
          "type": "address"
        },
        {
          "indexed": true,
          "internalType": "address",
          "name": "newTreasury",
          "type": "address"
        }
      ],
      "name": "TreasuryUpdated",
      "type": "event"
    },
    {
      "inputs": [],
      "name": "BPS_DENOMINATOR",
      "outputs": [
        {
          "internalType": "uint256",
          "name": "",
          "type": "uint256"
        }
      ],
      "stateMutability": "view",
      "type": "function"
    },
    {
      "inputs": [],
      "name": "EMERGENCY_DELAY",
      "outputs": [
        {
          "internalType": "uint256",
          "name": "",
          "type": "uint256"
        }
      ],
      "stateMutability": "view",
      "type": "function"
    },
    {
      "inputs": [],
      "name": "MAX_FEE_BPS",
      "outputs": [
        {
          "internalType": "uint256",
          "name": "",
          "type": "uint256"
        }
      ],
      "stateMutability": "view",
      "type": "function"
    },
    {
      "inputs": [],
      "name": "PAYOUT_TYPEHASH",
      "outputs": [
        {
          "internalType": "bytes32",
          "name": "",
          "type": "bytes32"
        }
      ],
      "stateMutability": "view",
      "type": "function"
    },
    {
      "inputs": [],
      "name": "ROOM_TIMEOUT",
      "outputs": [
        {
          "internalType": "uint256",
          "name": "",
          "type": "uint256"
        }
      ],
      "stateMutability": "view",
      "type": "function"
    },
    {
      "inputs": [],
      "name": "acceptOwnership",
      "outputs": [],
      "stateMutability": "nonpayable",
      "type": "function"
    },
    {
      "inputs": [
        {
          "internalType": "bytes32",
          "name": "roomId",
          "type": "bytes32"
        }
      ],
      "name": "canEmergencyWithdraw",
      "outputs": [
        {
          "internalType": "bool",
          "name": "",
          "type": "bool"
        }
      ],
      "stateMutability": "view",
      "type": "function"
    },
    {
      "inputs": [
        {
          "internalType": "bytes32",
          "name": "roomId",
          "type": "bytes32"
        }
      ],
      "name": "cancelRoom",
      "outputs": [],
      "stateMutability": "nonpayable",
      "type": "function"
    },
    {
      "inputs": [
        {
          "internalType": "bytes32",
          "name": "roomId",
          "type": "bytes32"
        },
        {
          "internalType": "address",
          "name": "winner",
          "type": "address"
        },
        {
          "internalType": "uint256",
          "name": "amount",
          "type": "uint256"
        },
        {
          "internalType": "uint256",
          "name": "nonce",
          "type": "uint256"
        },
        {
          "internalType": "uint256",
          "name": "deadline",
          "type": "uint256"
        },
        {
          "internalType": "bytes",
          "name": "signature",
          "type": "bytes"
        }
      ],
      "name": "claimPayout",
      "outputs": [],
      "stateMutability": "nonpayable",
      "type": "function"
    },
    {
      "inputs": [
        {
          "internalType": "bytes32",
          "name": "roomId",
          "type": "bytes32"
        },
        {
          "internalType": "uint256",
          "name": "entryAmount",
          "type": "uint256"
        }
      ],
      "name": "createRoom",
      "outputs": [],
      "stateMutability": "nonpayable",
      "type": "function"
    },
    {
      "inputs": [],
      "name": "domainSeparator",
      "outputs": [
        {
          "internalType": "bytes32",
          "name": "",
          "type": "bytes32"
        }
      ],
      "stateMutability": "view",
      "type": "function"
    },
    {
      "inputs": [],
      "name": "eip712Domain",
      "outputs": [
        {
          "internalType": "bytes1",
          "name": "fields",
          "type": "bytes1"
        },
        {
          "internalType": "string",
          "name": "name",
          "type": "string"
        },
        {
          "internalType": "string",
          "name": "version",
          "type": "string"
        },
        {
          "internalType": "uint256",
          "name": "chainId",
          "type": "uint256"
        },
        {
          "internalType": "address",
          "name": "verifyingContract",
          "type": "address"
        },
        {
          "internalType": "bytes32",
          "name": "salt",
          "type": "bytes32"
        },
        {
          "internalType": "uint256[]",
          "name": "extensions",
          "type": "uint256[]"
        }
      ],
      "stateMutability": "view",
      "type": "function"
    },
    {
      "inputs": [
        {
          "internalType": "bytes32",
          "name": "roomId",
          "type": "bytes32"
        }
      ],
      "name": "emergencyWithdraw",
      "outputs": [],
      "stateMutability": "nonpayable",
      "type": "function"
    },
    {
      "inputs": [],
      "name": "feeBps",
      "outputs": [
        {
          "internalType": "uint256",
          "name": "",
          "type": "uint256"
        }
      ],
      "stateMutability": "view",
      "type": "function"
    },
    {
      "inputs": [
        {
          "internalType": "bytes32",
          "name": "roomId",
          "type": "bytes32"
        }
      ],
      "name": "getRoom",
      "outputs": [
        {
          "components": [
            {
              "internalType": "address",
              "name": "creator",
              "type": "address"
            },
            {
              "internalType": "address",
              "name": "opponent",
              "type": "address"
            },
            {
              "internalType": "uint256",
              "name": "entryAmount",
              "type": "uint256"
            },
            {
              "internalType": "uint256",
              "name": "pot",
              "type": "uint256"
            },
            {
              "internalType": "uint256",
              "name": "createdAt",
              "type": "uint256"
            },
            {
              "internalType": "enum LudoVault.RoomStatus",
              "name": "status",
              "type": "uint8"
            }
          ],
          "internalType": "struct LudoVault.Room",
          "name": "",
          "type": "tuple"
        }
      ],
      "stateMutability": "view",
      "type": "function"
    },
    {
      "inputs": [
        {
          "internalType": "bytes32",
          "name": "roomId",
          "type": "bytes32"
        }
      ],
      "name": "joinRoom",
      "outputs": [],
      "stateMutability": "nonpayable",
      "type": "function"
    },
    {
      "inputs": [],
      "name": "owner",
      "outputs": [
        {
          "internalType": "address",
          "name": "",
          "type": "address"
        }
      ],
      "stateMutability": "view",
      "type": "function"
    },
    {
      "inputs": [],
      "name": "pendingOwner",
      "outputs": [
        {
          "internalType": "address",
          "name": "",
          "type": "address"
        }
      ],
      "stateMutability": "view",
      "type": "function"
    },
    {
      "inputs": [],
      "name": "renounceOwnership",
      "outputs": [],
      "stateMutability": "nonpayable",
      "type": "function"
    },
    {
      "inputs": [
        {
          "internalType": "bytes32",
          "name": "",
          "type": "bytes32"
        }
      ],
      "name": "rooms",
      "outputs": [
        {
          "internalType": "address",
          "name": "creator",
          "type": "address"
        },
        {
          "internalType": "address",
          "name": "opponent",
          "type": "address"
        },
        {
          "internalType": "uint256",
          "name": "entryAmount",
          "type": "uint256"
        },
        {
          "internalType": "uint256",
          "name": "pot",
          "type": "uint256"
        },
        {
          "internalType": "uint256",
          "name": "createdAt",
          "type": "uint256"
        },
        {
          "internalType": "enum LudoVault.RoomStatus",
          "name": "status",
          "type": "uint8"
        }
      ],
      "stateMutability": "view",
      "type": "function"
    },
    {
      "inputs": [
        {
          "internalType": "uint256",
          "name": "newFeeBps",
          "type": "uint256"
        }
      ],
      "name": "setFee",
      "outputs": [],
      "stateMutability": "nonpayable",
      "type": "function"
    },
    {
      "inputs": [
        {
          "internalType": "address",
          "name": "newSigner",
          "type": "address"
        }
      ],
      "name": "setSigner",
      "outputs": [],
      "stateMutability": "nonpayable",
      "type": "function"
    },
    {
      "inputs": [
        {
          "internalType": "address",
          "name": "newTreasury",
          "type": "address"
        }
      ],
      "name": "setTreasury",
      "outputs": [],
      "stateMutability": "nonpayable",
      "type": "function"
    },
    {
      "inputs": [],
      "name": "signer",
      "outputs": [
        {
          "internalType": "address",
          "name": "",
          "type": "address"
        }
      ],
      "stateMutability": "view",
      "type": "function"
    },
    {
      "inputs": [],
      "name": "token",
      "outputs": [
        {
          "internalType": "contract IERC20",
          "name": "",
          "type": "address"
        }
      ],
      "stateMutability": "view",
      "type": "function"
    },
    {
      "inputs": [
        {
          "internalType": "address",
          "name": "newOwner",
          "type": "address"
        }
      ],
      "name": "transferOwnership",
      "outputs": [],
      "stateMutability": "nonpayable",
      "type": "function"
    },
    {
      "inputs": [],
      "name": "treasury",
      "outputs": [
        {
          "internalType": "address",
          "name": "",
          "type": "address"
        }
      ],
      "stateMutability": "view",
      "type": "function"
    },
    {
      "inputs": [
        {
          "internalType": "bytes32",
          "name": "",
          "type": "bytes32"
        }
      ],
      "name": "usedNonces",
      "outputs": [
        {
          "internalType": "bool",
          "name": "",
          "type": "bool"
        }
      ],
      "stateMutability": "view",
      "type": "function"
    }
  ],
  "bytecode": "0x610180346102c257601f611e3738819003918201601f19168301916001600160401b0391828411858510176102c75781608092869260409687528339810103126102c25761004c836102f8565b92610059602082016102f8565b9260606100678284016102f8565b920151815192610076846102dd565b60098452602084019568131d591bd5985d5b1d60ba1b875283519061009a826102dd565b600182526020820190603160f81b825260009960018b5533156102aa5760018060a01b03199384600254166002556001549360018060a01b039433878216176001558d7f8be0079c531659141344cd1fd0a4f28419497f9722a3daafe3b4186f6b6457e0873393169180a361010e8a61030c565b9b6101209c8d5261011e836104d2565b9a6101409b8c52519020918260e052519020809c6101009d8e524660a05289519160208301937f8b73c3c69bb8fe3d512ecc4cf759cc79239f7b179b0ffacaa9a75d522b39400f85528b84015260608301524660808301523060a083015260a0825260c082019b828d10908d111761029657508a89525190206080523060c0528216978815610287575081169283156102765716918215610265576103e8841161025457610160968752816005541617600555600754161760075560065551926117ad948561068a8639608051856112ef015260a051856113aa015260c051856112b9015260e0518561133e0152518461136401525183610b0b01525182610b3401525181818161019f015281816104aa015281816107ca0152818161084501528181610a5901528181610d450152610fd70152f35b84516358d620b360e01b8152600490fd5b845163e6c4247b60e01b8152600490fd5b855163e6c4247b60e01b8152600490fd5b63e6c4247b60e01b8152600490fd5b634e487b7160e01b81526041600452602490fd5b8651631e4fbdf760e01b8152600481018c9052602490fd5b600080fd5b634e487b7160e01b600052604160045260246000fd5b604081019081106001600160401b038211176102c757604052565b51906001600160a01b03821682036102c257565b805160209190828110156103a6575090601f825111610347578082519201519080831061033857501790565b82600019910360031b1b161790565b90604051809263305a27a960e01b82528060048301528251908160248401526000935b82851061038d575050604492506000838284010152601f80199101168101030190fd5b848101820151868601604401529381019385935061036a565b6001600160401b0381116102c7576003928354926001938481811c911680156104c8575b838210146104b257601f811161047c575b5081601f8411600114610417575092829391839260009461040c575b50501b9160001990841b1c191617905560ff90565b0151925038806103f7565b919083601f1981168760005284600020946000905b88838310610462575050501061044a575b505050811b01905560ff90565b015160001983861b60f8161c1916905538808061043d565b85870151885590960195948501948793509081019061042c565b8560005284601f84600020920160051c820191601f860160051c015b8281106104a65750506103db565b60008155018590610498565b634e487b7160e01b600052602260045260246000fd5b90607f16906103ca565b8051602091908281101561055d575090601f8251116104fe578082519201519080831061033857501790565b90604051809263305a27a960e01b82528060048301528251908160248401526000935b828510610544575050604492506000838284010152601f80199101168101030190fd5b8481018201518686016044015293810193859350610521565b6001600160401b0381116102c7576004928354926001938481811c9116801561067f575b8382101461066a57601f8111610634575b5081601f84116001146105cf57509282939183926000946105c4575b50501b916000199060031b1c191617905560ff90565b0151925038806105ae565b919083601f1981168760005284600020946000905b8883831061061a575050501061060157505050811b01905560ff90565b015160001960f88460031b161c1916905538808061043d565b8587015188559096019594850194879350908101906105e4565b8560005284601f84600020920160051c820191601f860160051c015b82811061065e575050610592565b60008155018590610650565b602286634e487b7160e01b6000525260246000fd5b90607f169061058156fe608080604052600436101561001357600080fd5b60003560e01c9081630252373b146110b2575080632204b90914611077578063238ac9331461104e57806324a9d853146110305780634b29b4c414610f4057806361d027b314610f1757806369fe0e2d14610ea75780636c19e78314610e37578063715018a614610dd057806375870d6514610ca257806379ba509714610c1e57806382944e2d14610c0057806384b0196e14610af5578063893c974114610ad95780638da5cb5b14610ab057806392776b4f146109e6578063ad9a2866146108fd578063c8f6e40d1461053b578063c9cf8450146103bc578063d55be8c61461039f578063d7fbc2e414610326578063e1a4521814610309578063e30c3978146102e0578063f0f442601461025e578063f2fde38b146101f1578063f698da25146101ce578063fc0c546a146101895763feb617241461015357600080fd5b34610184576020366003190112610184576004356000526008602052602060ff604060002054166040519015158152f35b600080fd5b34610184576000366003190112610184576040517f00000000000000000000000000000000000000000000000000000000000000006001600160a01b03168152602090f35b346101845760003660031901126101845760206101e96112b6565b604051908152f35b346101845760203660031901126101845761020a611117565b610212611252565b600280546001600160a01b0319166001600160a01b039283169081179091556001549091167f38d16b8cac22d99fc7c124b9cd0de2d3fa1faef420bfe791d8c362d765e22700600080a3005b3461018457602036600319011261018457610277611117565b61027f611252565b6001600160a01b039081169081156102ce57600754826001600160601b0360a01b821617600755167f4ab5be82436d353e61ca18726e984e561f5c1cc7c6d38b29d2553c790434705a600080a3005b60405163e6c4247b60e01b8152600490fd5b34610184576000366003190112610184576002546040516001600160a01b039091168152602090f35b346101845760003660031901126101845760206040516127108152f35b3461018457602036600319011261018457600435600052600960205260c0604060002061039d60018060a01b0391828154169260018201541690600281015460038201549060ff600560048501549401541693604051968752602087015260408601526060850152608084015260a083019061116d565bf35b346101845760003660031901126101845760206040516103e88152f35b34610184576040366003190112610184576024356004356103db6111d4565b81156105295780600052600960205260ff600560406000200154166005811015610501576105175760405161040f8161117a565b33815260056020820191600083526040810185815260608201868152608083019142835260a08401956001875287600052600960205260406000209460018060a01b0380915116906001600160601b0360a01b9182885416178755600187019251169082541617905551600284015551600383015551600482015501905160058110156105015760ff801983541691161790556104ce8230337f00000000000000000000000000000000000000000000000000000000000000006111f7565b6040519182527f2cae16457f550ded88d7f4d25429ca3754d197f6e6acc9b0db3232de1be4aa7060203393a36001600055005b634e487b7160e01b600052602160045260246000fd5b60405163e4ba2b1160e01b8152600490fd5b60405163162908e360e11b8152600490fd5b346101845760c0366003190112610184576024356001600160a01b03811681036101845767ffffffffffffffff60a435116101845736602360a4350112156101845767ffffffffffffffff60a43560040135116101845736602460a4356004013560a435010111610184576105ae6111d4565b60843542116108eb5760405190600435602083015260643560408301526040825281606081011067ffffffffffffffff6060840111176108965760608201604052815160208301209182600052600860205260ff604060002054166108d85750600435600052600960205260406000209160ff6005840154166005811015610501576002036105175782546001600160a01b0383811691161415806108be575b6108ac576040517ffd82c65ef44d047431783b54c7e66891afcf0da94e453dfcec91df5762287c7e6020820152600435604082015260018060a01b0383166060820152604435608082015260643560a082015260843560c082015260c081528060e081011067ffffffffffffffff60e0830111176108965761074360428260e061074c9401604052602081519101206106e56112b6565b906040519161190160f01b835260028301526022820152206040519061071b6020601f19601f60a43560040135011601836111b2565b60a43560048101358084529060240160208401376000602060a435600401358401015261163c565b90929192611678565b6005546001600160a01b039081169116036108845760005260086020526003604060002060ff199060018282541617905560058401541617600583015560065480604435029060443582041460443515171561086e576127109004806044350392604435841161086e576003600091015580610831575b6107ee83837f0000000000000000000000000000000000000000000000000000000000000000611266565b604051928352602083015260018060a01b0316907fa0e7734c8654e287a45f16fde066023ac9ca1cd19e028986989d5c4d5f1f520e604060043592a36001600055005b6007546108699082906001600160a01b03167f0000000000000000000000000000000000000000000000000000000000000000611266565b6107c3565b634e487b7160e01b600052601160045260246000fd5b604051638baa579f60e01b8152600490fd5b634e487b7160e01b600052604160045260246000fd5b604051634ae76adf60e01b8152600490fd5b5060018301546001600160a01b038381169116141561064e565b6060600491623f613760e71b8282015201fd5b604051631ab7da6b60e01b8152600490fd5b3461018457602036600319011261018457600060a060405161091e8161117a565b8281528260208201528260408201528260608201528260808201520152600435600052600960205260406000206040516109578161117a565b60018060a01b03918281541682528260018201541692602083019384526002820154916040840192835260038101546060850190815260ff6005600484015493608088019485520154169360a086019360058610156105015760c09761039d968652816040519851168852511660208701525160408601525160608501525160808401525160a083019061116d565b3461018457602036600319011261018457600435610a026111d4565b806000526009602052604060002090600582019182549260ff84166005811015610501576001036105175781546001600160a01b031633036108ac5760036000920190600482549560ff191617905555610a7d82337f0000000000000000000000000000000000000000000000000000000000000000611266565b6040519182527f44ad6a9e36645c633fe0758019f6292d7a324289557759164269e07847d5a9fa60203393a36001600055005b34610184576000366003190112610184576001546040516001600160a01b039091168152602090f35b3461018457600036600319011261018457602060405160b48152f35b3461018457600036600319011261018457610b2f7f0000000000000000000000000000000000000000000000000000000000000000611438565b610b587f0000000000000000000000000000000000000000000000000000000000000000611564565b60405160208082019282841067ffffffffffffffff85111761089657916020610bb38594610ba5979660405260008452604051978897600f60f81b895260e0858a015260e089019061112d565b90878203604089015261112d565b91466060870152306080870152600060a087015285830360c0870152519182815201929160005b828110610be957505050500390f35b835185528695509381019392810192600101610bda565b34610184576000366003190112610184576020604051620151808152f35b34610184576000366003190112610184576002546001600160a01b033381831603610c8a576001600160601b0360a01b8092166002556001549133908316176001553391167f8be0079c531659141344cd1fd0a4f28419497f9722a3daafe3b4186f6b6457e0600080a3005b60405163118cdaa760e01b8152336004820152602490fd5b3461018457602036600319011261018457600435610cbe6111d4565b806000526009602052604060002090600582019182549260ff84166005811015610501576002036105175781546001600160a01b039081163381141580610dc0575b6108ac57600484015462015180810180911161086e574210610dae576000600385602096956004600289980154966001840154169a60ff19161790550155610d7482877f0000000000000000000000000000000000000000000000000000000000000000610d6f838683611266565b611266565b846040518381527fd3e69353709a7dcaab28b44353b592c552cd797c95ffb523f924c0a16b4a2c2b958691a3604051908152a36001600055005b6040516302aee1fb60e21b8152600490fd5b5081600185015416331415610d00565b3461018457600036600319011261018457610de9611252565b600280546001600160a01b03199081169091556001805491821690556000906001600160a01b03167f8be0079c531659141344cd1fd0a4f28419497f9722a3daafe3b4186f6b6457e08280a3005b3461018457602036600319011261018457610e50611117565b610e58611252565b6001600160a01b039081169081156102ce57600554826001600160601b0360a01b821617600555167f2d025324f0a785e8c12d0a0d91a9caa49df4ef20ff87e0df7213a1d4f3157beb600080a3005b3461018457602036600319011261018457600435610ec3611252565b6103e88111610f055760407f528d9479e9f9889a87a3c30c7f7ba537e5e59c4c85a37733b16e57c62df6130291600654908060065582519182526020820152a1005b6040516358d620b360e01b8152600490fd5b34610184576000366003190112610184576007546040516001600160a01b039091168152602090f35b3461018457602036600319011261018457600435610f5c6111d4565b8060005260096020526040600020600581019081549060ff82166005811015610501576001036105175780546001600160a01b031633146108ac57600360028201549160018101336001600160601b0360a01b8254161790550192835482810180911161086e57610ffb93600291865560ff191617905530337f00000000000000000000000000000000000000000000000000000000000000006111f7565b54906040519182527f7fb92d9ef81fb1a14948efd516a9cd1343209038f191b7901ad2625166085a7c60203393a36001600055005b34610184576000366003190112610184576020600654604051908152f35b34610184576000366003190112610184576005546040516001600160a01b039091168152602090f35b346101845760003660031901126101845760206040517ffd82c65ef44d047431783b54c7e66891afcf0da94e453dfcec91df5762287c7e8152f35b34610184576020366003190112610184576004356000526009602052604060002060ff60058201541660058110156105015760021490816110f8575b6020838315158152f35b6004915001549062015180820180921161086e579042101560206110ee565b600435906001600160a01b038216820361018457565b919082519283825260005b848110611159575050826000602080949584010152601f8019910116010190565b602081830181015184830182015201611138565b9060058210156105015752565b60c0810190811067ffffffffffffffff82111761089657604052565b6040810190811067ffffffffffffffff82111761089657604052565b90601f8019910116810190811067ffffffffffffffff82111761089657604052565b6002600054146111e5576002600055565b604051633ee5aeb560e01b8152600490fd5b6040516323b872dd60e01b60208201526001600160a01b03928316602482015292909116604483015260648083019390935291815260a081019181831067ffffffffffffffff84111761089657611250926040526113d0565b565b6001546001600160a01b03163303610c8a57565b60405163a9059cbb60e01b60208201526001600160a01b039092166024830152604480830193909352918152608081019167ffffffffffffffff83118284101761089657611250926040526113d0565b307f00000000000000000000000000000000000000000000000000000000000000006001600160a01b031614806113a7575b15611311577f000000000000000000000000000000000000000000000000000000000000000090565b60405160208101907f8b73c3c69bb8fe3d512ecc4cf759cc79239f7b179b0ffacaa9a75d522b39400f82527f000000000000000000000000000000000000000000000000000000000000000060408201527f000000000000000000000000000000000000000000000000000000000000000060608201524660808201523060a082015260a081526113a18161117a565b51902090565b507f000000000000000000000000000000000000000000000000000000000000000046146112e8565b906000602091828151910182855af11561142c576000513d61142357506001600160a01b0381163b155b6114015750565b604051635274afe760e01b81526001600160a01b039091166004820152602490fd5b600114156113fa565b6040513d6000823e3d90fd5b60ff81146114765760ff811690601f8211611464576040519161145a83611196565b8252602082015290565b604051632cd44ac360e21b8152600490fd5b5060405160006003549060018260011c906001841693841561155a575b6020948584108114611546578387528694939291811561152657506001146114c7575b50506114c4925003826111b2565b90565b9093915060036000527fc2575a0e9e593c00f959f8c92f12db2869c3395a3b0502d05e2516446f71f85b936000915b81831061150e5750506114c4935082010138806114b6565b855487840185015294850194869450918301916114f6565b9150506114c494925060ff191682840152151560051b82010138806114b6565b634e487b7160e01b85526022600452602485fd5b91607f1691611493565b60ff81146115865760ff811690601f8211611464576040519161145a83611196565b5060405160006004549060018260011c9060018416938415611632575b6020948584108114611546578387528694939291811561152657506001146115d35750506114c4925003826111b2565b9093915060046000527f8a35acfbc15ff81a39ae7d344fd709f28e8600b4aa8c65c6b64bfe7fe36bd19b936000915b81831061161a5750506114c4935082010138806114b6565b85548784018501529485019486945091830191611602565b91607f16916115a3565b815191906041830361166d5761166692506020820151906060604084015193015160001a906116e7565b9192909190565b505060009160029190565b6004811015610501578061168a575050565b600181036116a45760405163f645eedf60e01b8152600490fd5b600281036116c55760405163fce698f760e01b815260048101839052602490fd5b6003146116cf5750565b602490604051906335e2f38360e21b82526004820152fd5b91907f7fffffffffffffffffffffffffffffff5d576e7357a4501ddfe92f46681b20a0841161176b57926020929160ff608095604051948552168484015260408301526060820152600092839182805260015afa1561175f5780516001600160a01b0381161561175657918190565b50809160019190565b604051903d90823e3d90fd5b5050506000916003919056fea26469706673582212204df83674e82d7fd0e5791258a058722bdad114048790d9f0400af5ad94af3f1a64736f6c63430008190033",
  "linkReferences": {},
  "deployedLinkReferences": {}
}